{
  "contractName": "RepublicSurpriseContract",
  "abi": [
    {
      "inputs": [],
      "stateMutability": "nonpayable",
      "type": "constructor"
    },
    {
      "anonymous": false,
      "inputs": [
        {
          "indexed": true,
          "internalType": "address",
          "name": "account",
          "type": "address"
        }
      ],
      "name": "AdminAdded",
      "type": "event"
    },
    {
      "anonymous": false,
      "inputs": [
        {
          "indexed": true,
          "internalType": "address",
          "name": "account",
          "type": "address"
        }
      ],
      "name": "DeliveryAdded",
      "type": "event"
    },
    {
      "anonymous": false,
      "inputs": [
        {
          "indexed": true,
          "internalType": "uint256",
          "name": "orderId",
          "type": "uint256"
        },
        {
          "indexed": true,
          "internalType": "address",
          "name": "deliveryMan",
          "type": "address"
        },
        {
          "indexed": true,
          "internalType": "address",
          "name": "actor",
          "type": "address"
        }
      ],
      "name": "DeliveryAssigned",
      "type": "event"
    },
    {
      "anonymous": false,
      "inputs": [
        {
          "indexed": true,
          "internalType": "uint256",
          "name": "orderId",
          "type": "uint256"
        },
        {
          "indexed": false,
          "internalType": "enum RepublicSurpriseContract.OrderStatus",
          "name": "status",
          "type": "uint8"
        },
        {
          "indexed": true,
          "internalType": "address",
          "name": "actor",
          "type": "address"
        },
        {
          "indexed": false,
          "internalType": "string",
          "name": "note",
          "type": "string"
        },
        {
          "indexed": false,
          "internalType": "string",
          "name": "proofImage",
          "type": "string"
        }
      ],
      "name": "DeliveryLogAdded",
      "type": "event"
    },
    {
      "anonymous": false,
      "inputs": [
        {
          "indexed": true,
          "internalType": "uint256",
          "name": "orderId",
          "type": "uint256"
        },
        {
          "indexed": false,
          "internalType": "string",
          "name": "deliveryId",
          "type": "string"
        },
        {
          "indexed": false,
          "internalType": "enum RepublicSurpriseContract.OrderStatus",
          "name": "status",
          "type": "uint8"
        },
        {
          "indexed": false,
          "internalType": "string",
          "name": "proofImage",
          "type": "string"
        }
      ],
      "name": "DeliveryStatus",
      "type": "event"
    },
    {
      "anonymous": false,
      "inputs": [
        {
          "indexed": true,
          "internalType": "uint256",
          "name": "orderId",
          "type": "uint256"
        },
        {
          "indexed": false,
          "internalType": "uint256",
          "name": "productId",
          "type": "uint256"
        },
        {
          "indexed": false,
          "internalType": "address",
          "name": "buyer",
          "type": "address"
        },
        {
          "indexed": false,
          "internalType": "uint256",
          "name": "qty",
          "type": "uint256"
        },
        {
          "indexed": false,
          "internalType": "uint256",
          "name": "paid",
          "type": "uint256"
        }
      ],
      "name": "OrderCreated",
      "type": "event"
    },
    {
      "anonymous": false,
      "inputs": [
        {
          "indexed": true,
          "internalType": "uint256",
          "name": "orderId",
          "type": "uint256"
        },
        {
          "indexed": false,
          "internalType": "enum RepublicSurpriseContract.OrderStatus",
          "name": "status",
          "type": "uint8"
        }
      ],
      "name": "OrderStatusChanged",
      "type": "event"
    },
    {
      "anonymous": false,
      "inputs": [
        {
          "indexed": false,
          "internalType": "uint256",
          "name": "orderId",
          "type": "uint256"
        },
        {
          "indexed": false,
          "internalType": "address",
          "name": "buyer",
          "type": "address"
        },
        {
          "indexed": false,
          "internalType": "uint256",
          "name": "amountPaid",
          "type": "uint256"
        }
      ],
      "name": "Paid",
      "type": "event"
    },
    {
      "anonymous": false,
      "inputs": [
        {
          "indexed": true,
          "internalType": "uint256",
          "name": "id",
          "type": "uint256"
        },
        {
          "indexed": false,
          "internalType": "string",
          "name": "name",
          "type": "string"
        },
        {
          "indexed": false,
          "internalType": "uint256",
          "name": "priceWei",
          "type": "uint256"
        }
      ],
      "name": "ProductAdded",
      "type": "event"
    },
    {
      "anonymous": false,
      "inputs": [
        {
          "indexed": true,
          "internalType": "uint256",
          "name": "id",
          "type": "uint256"
        },
        {
          "indexed": false,
          "internalType": "enum RepublicSurpriseContract.ProductStatus",
          "name": "status",
          "type": "uint8"
        }
      ],
      "name": "ProductStatusChanged",
      "type": "event"
    },
    {
      "anonymous": false,
      "inputs": [
        {
          "indexed": true,
          "internalType": "address",
          "name": "account",
          "type": "address"
        },
        {
          "indexed": false,
          "internalType": "enum RepublicSurpriseContract.Role",
          "name": "role",
          "type": "uint8"
        },
        {
          "indexed": true,
          "internalType": "address",
          "name": "actor",
          "type": "address"
        }
      ],
      "name": "RoleAssigned",
      "type": "event"
    },
    {
      "anonymous": false,
      "inputs": [
        {
          "indexed": true,
          "internalType": "address",
          "name": "account",
          "type": "address"
        },
        {
          "indexed": false,
          "internalType": "enum RepublicSurpriseContract.Role",
          "name": "previousRole",
          "type": "uint8"
        },
        {
          "indexed": false,
          "internalType": "enum RepublicSurpriseContract.Role",
          "name": "newRole",
          "type": "uint8"
        },
        {
          "indexed": true,
          "internalType": "address",
          "name": "actor",
          "type": "address"
        }
      ],
      "name": "RoleChanged",
      "type": "event"
    },
    {
      "anonymous": false,
      "inputs": [
        {
          "indexed": true,
          "internalType": "uint256",
          "name": "orderId",
          "type": "uint256"
        },
        {
          "indexed": true,
          "internalType": "address",
          "name": "buyer",
          "type": "address"
        },
        {
          "indexed": false,
          "internalType": "uint256",
          "name": "totalAmount",
          "type": "uint256"
        }
      ],
      "name": "UserOrderCreated",
      "type": "event"
    },
    {
      "anonymous": false,
      "inputs": [
        {
          "indexed": true,
          "internalType": "uint256",
          "name": "orderId",
          "type": "uint256"
        },
        {
          "indexed": false,
          "internalType": "enum RepublicSurpriseContract.UserOrderStatus",
          "name": "status",
          "type": "uint8"
        }
      ],
      "name": "UserOrderStatusUpdated",
      "type": "event"
    },
    {
      "anonymous": false,
      "inputs": [
        {
          "indexed": true,
          "internalType": "address",
          "name": "user",
          "type": "address"
        },
        {
          "indexed": false,
          "internalType": "bytes32",
          "name": "profileHash",
          "type": "bytes32"
        }
      ],
      "name": "UserProfileUpdated",
      "type": "event"
    },
    {
      "anonymous": false,
      "inputs": [
        {
          "indexed": true,
          "internalType": "address",
          "name": "user",
          "type": "address"
        },
        {
          "indexed": false,
          "internalType": "bytes32",
          "name": "profileHash",
          "type": "bytes32"
        }
      ],
      "name": "UserRegistered",
      "type": "event"
    },
    {
      "inputs": [],
      "name": "RepublicSurpriseCount",
      "outputs": [
        {
          "internalType": "uint256",
          "name": "",
          "type": "uint256"
        }
      ],
      "stateMutability": "view",
      "type": "function"
    },
    {
      "inputs": [],
      "name": "admin",
      "outputs": [
        {
          "internalType": "address",
          "name": "",
          "type": "address"
        }
      ],
      "stateMutability": "view",
      "type": "function"
    },
    {
      "inputs": [
        {
          "internalType": "address",
          "name": "",
          "type": "address"
        }
      ],
      "name": "admins",
      "outputs": [
        {
          "internalType": "bool",
          "name": "",
          "type": "bool"
        }
      ],
      "stateMutability": "view",
      "type": "function"
    },
    {
      "inputs": [],
      "name": "companyName",
      "outputs": [
        {
          "internalType": "string",
          "name": "",
          "type": "string"
        }
      ],
      "stateMutability": "view",
      "type": "function"
    },
    {
      "inputs": [
        {
          "internalType": "address",
          "name": "",
          "type": "address"
        }
      ],
      "name": "deliveryMen",
      "outputs": [
        {
          "internalType": "bool",
          "name": "",
          "type": "bool"
        }
      ],
      "stateMutability": "view",
      "type": "function"
    },
    {
      "inputs": [],
      "name": "nextUserOrderId",
      "outputs": [
        {
          "internalType": "uint256",
          "name": "",
          "type": "uint256"
        }
      ],
      "stateMutability": "view",
      "type": "function"
    },
    {
      "inputs": [],
      "name": "orderCount",
      "outputs": [
        {
          "internalType": "uint256",
          "name": "",
          "type": "uint256"
        }
      ],
      "stateMutability": "view",
      "type": "function"
    },
    {
      "inputs": [
        {
          "internalType": "uint256",
          "name": "",
          "type": "uint256"
        }
      ],
      "name": "orderDeliveryMan",
      "outputs": [
        {
          "internalType": "address",
          "name": "",
          "type": "address"
        }
      ],
      "stateMutability": "view",
      "type": "function"
    },
    {
      "inputs": [
        {
          "internalType": "uint256",
          "name": "",
          "type": "uint256"
        }
      ],
      "name": "orders",
      "outputs": [
        {
          "internalType": "uint256",
          "name": "id",
          "type": "uint256"
        },
        {
          "internalType": "address",
          "name": "buyer",
          "type": "address"
        },
        {
          "internalType": "uint256",
          "name": "productId",
          "type": "uint256"
        },
        {
          "internalType": "uint256",
          "name": "qty",
          "type": "uint256"
        },
        {
          "internalType": "uint256",
          "name": "paid",
          "type": "uint256"
        },
        {
          "internalType": "enum RepublicSurpriseContract.OrderStatus",
          "name": "status",
          "type": "uint8"
        },
        {
          "internalType": "string",
          "name": "deliveryId",
          "type": "string"
        },
        {
          "internalType": "string",
          "name": "proofImage",
          "type": "string"
        }
      ],
      "stateMutability": "view",
      "type": "function"
    },
    {
      "inputs": [],
      "name": "owner",
      "outputs": [
        {
          "internalType": "address",
          "name": "",
          "type": "address"
        }
      ],
      "stateMutability": "view",
      "type": "function"
    },
    {
      "inputs": [
        {
          "internalType": "uint256",
          "name": "",
          "type": "uint256"
        }
      ],
      "name": "payments",
      "outputs": [
        {
          "internalType": "address",
          "name": "buyer",
          "type": "address"
        },
        {
          "internalType": "uint256",
          "name": "amountPaid",
          "type": "uint256"
        }
      ],
      "stateMutability": "view",
      "type": "function"
    },
    {
      "inputs": [],
      "name": "productCount",
      "outputs": [
        {
          "internalType": "uint256",
          "name": "",
          "type": "uint256"
        }
      ],
      "stateMutability": "view",
      "type": "function"
    },
    {
      "inputs": [
        {
          "internalType": "uint256",
          "name": "",
          "type": "uint256"
        }
      ],
      "name": "products",
      "outputs": [
        {
          "internalType": "uint256",
          "name": "id",
          "type": "uint256"
        },
        {
          "internalType": "string",
          "name": "name",
          "type": "string"
        },
        {
          "internalType": "string",
          "name": "description",
          "type": "string"
        },
        {
          "internalType": "uint256",
          "name": "priceWei",
          "type": "uint256"
        },
        {
          "internalType": "uint256",
          "name": "stock",
          "type": "uint256"
        },
        {
          "internalType": "enum RepublicSurpriseContract.ProductStatus",
          "name": "status",
          "type": "uint8"
        }
      ],
      "stateMutability": "view",
      "type": "function"
    },
    {
      "inputs": [
        {
          "internalType": "address",
          "name": "",
          "type": "address"
        }
      ],
      "name": "roles",
      "outputs": [
        {
          "internalType": "enum RepublicSurpriseContract.Role",
          "name": "",
          "type": "uint8"
        }
      ],
      "stateMutability": "view",
      "type": "function"
    },
    {
      "inputs": [],
      "name": "userCount",
      "outputs": [
        {
          "internalType": "uint256",
          "name": "",
          "type": "uint256"
        }
      ],
      "stateMutability": "view",
      "type": "function"
    },
    {
      "inputs": [
        {
          "internalType": "uint256",
          "name": "",
          "type": "uint256"
        }
      ],
      "name": "userOrders",
      "outputs": [
        {
          "internalType": "uint256",
          "name": "id",
          "type": "uint256"
        },
        {
          "internalType": "address",
          "name": "buyer",
          "type": "address"
        },
        {
          "internalType": "uint256",
          "name": "totalAmount",
          "type": "uint256"
        },
        {
          "internalType": "enum RepublicSurpriseContract.UserOrderStatus",
          "name": "status",
          "type": "uint8"
        },
        {
          "internalType": "uint256",
          "name": "createdAt",
          "type": "uint256"
        }
      ],
      "stateMutability": "view",
      "type": "function"
    },
    {
      "inputs": [
        {
          "internalType": "address",
          "name": "",
          "type": "address"
        },
        {
          "internalType": "uint256",
          "name": "",
          "type": "uint256"
        }
      ],
      "name": "userOrdersByUser",
      "outputs": [
        {
          "internalType": "uint256",
          "name": "",
          "type": "uint256"
        }
      ],
      "stateMutability": "view",
      "type": "function"
    },
    {
      "inputs": [
        {
          "internalType": "address",
          "name": "",
          "type": "address"
        }
      ],
      "name": "users",
      "outputs": [
        {
          "internalType": "uint256",
          "name": "id",
          "type": "uint256"
        },
        {
          "internalType": "bool",
          "name": "exists",
          "type": "bool"
        },
        {
          "internalType": "bytes32",
          "name": "profileHash",
          "type": "bytes32"
        }
      ],
      "stateMutability": "view",
      "type": "function"
    },
    {
      "stateMutability": "payable",
      "type": "receive"
    },
    {
      "inputs": [
        {
          "internalType": "address",
          "name": "account",
          "type": "address"
        }
      ],
      "name": "addAdmin",
      "outputs": [],
      "stateMutability": "nonpayable",
      "type": "function"
    },
    {
      "inputs": [
        {
          "internalType": "address",
          "name": "account",
          "type": "address"
        }
      ],
      "name": "addDeliveryMan",
      "outputs": [],
      "stateMutability": "nonpayable",
      "type": "function"
    },
    {
      "inputs": [
        {
          "internalType": "address",
          "name": "account",
          "type": "address"
        }
      ],
      "name": "isAdmin",
      "outputs": [
        {
          "internalType": "bool",
          "name": "",
          "type": "bool"
        }
      ],
      "stateMutability": "view",
      "type": "function"
    },
    {
      "inputs": [
        {
          "internalType": "address",
          "name": "account",
          "type": "address"
        }
      ],
      "name": "isDelivery",
      "outputs": [
        {
          "internalType": "bool",
          "name": "",
          "type": "bool"
        }
      ],
      "stateMutability": "view",
      "type": "function"
    },
    {
      "inputs": [
        {
          "internalType": "address",
          "name": "account",
          "type": "address"
        },
        {
          "internalType": "enum RepublicSurpriseContract.Role",
          "name": "role",
          "type": "uint8"
        }
      ],
      "name": "assignRole",
      "outputs": [],
      "stateMutability": "nonpayable",
      "type": "function"
    },
    {
      "inputs": [
        {
          "internalType": "address",
          "name": "account",
          "type": "address"
        },
        {
          "internalType": "enum RepublicSurpriseContract.Role",
          "name": "role",
          "type": "uint8"
        }
      ],
      "name": "changeRole",
      "outputs": [],
      "stateMutability": "nonpayable",
      "type": "function"
    },
    {
      "inputs": [
        {
          "internalType": "uint256",
          "name": "id",
          "type": "uint256"
        }
      ],
      "name": "isInStock",
      "outputs": [
        {
          "internalType": "bool",
          "name": "",
          "type": "bool"
        }
      ],
      "stateMutability": "view",
      "type": "function"
    },
    {
      "inputs": [
        {
          "internalType": "string",
          "name": "name",
          "type": "string"
        },
        {
          "internalType": "string",
          "name": "description",
          "type": "string"
        },
        {
          "internalType": "uint256",
          "name": "priceWei",
          "type": "uint256"
        },
        {
          "internalType": "uint256",
          "name": "stock",
          "type": "uint256"
        }
      ],
      "name": "addProduct",
      "outputs": [],
      "stateMutability": "nonpayable",
      "type": "function"
    },
    {
      "inputs": [
        {
          "internalType": "uint256",
          "name": "id",
          "type": "uint256"
        }
      ],
      "name": "deactivateProduct",
      "outputs": [],
      "stateMutability": "nonpayable",
      "type": "function"
    },
    {
      "inputs": [
        {
          "internalType": "uint256",
          "name": "id",
          "type": "uint256"
        }
      ],
      "name": "reactivateProduct",
      "outputs": [],
      "stateMutability": "nonpayable",
      "type": "function"
    },
    {
      "inputs": [
        {
          "internalType": "address",
          "name": "user",
          "type": "address"
        },
        {
          "internalType": "bytes32",
          "name": "profileHash",
          "type": "bytes32"
        }
      ],
      "name": "registerUser",
      "outputs": [],
      "stateMutability": "nonpayable",
      "type": "function"
    },
    {
      "inputs": [
        {
          "internalType": "uint256",
          "name": "productId",
          "type": "uint256"
        },
        {
          "internalType": "uint256",
          "name": "qty",
          "type": "uint256"
        }
      ],
      "name": "productPrice",
      "outputs": [
        {
          "internalType": "uint256",
          "name": "",
          "type": "uint256"
        }
      ],
      "stateMutability": "view",
      "type": "function"
    },
    {
      "inputs": [
        {
          "internalType": "uint256",
          "name": "productId",
          "type": "uint256"
        },
        {
          "internalType": "uint256",
          "name": "qty",
          "type": "uint256"
        },
        {
          "internalType": "string",
          "name": "deliveryId",
          "type": "string"
        }
      ],
      "name": "buy",
      "outputs": [
        {
          "internalType": "uint256",
          "name": "orderId",
          "type": "uint256"
        }
      ],
      "stateMutability": "payable",
      "type": "function"
    },
    {
      "inputs": [
        {
          "internalType": "uint256",
          "name": "orderId",
          "type": "uint256"
        },
        {
          "internalType": "string",
          "name": "deliveryId",
          "type": "string"
        }
      ],
      "name": "markOutForDelivery",
      "outputs": [],
      "stateMutability": "nonpayable",
      "type": "function"
    },
    {
      "inputs": [
        {
          "internalType": "uint256",
          "name": "orderId",
          "type": "uint256"
        },
        {
          "internalType": "string",
          "name": "proofImage",
          "type": "string"
        }
      ],
      "name": "submitProof",
      "outputs": [],
      "stateMutability": "nonpayable",
      "type": "function"
    },
    {
      "inputs": [
        {
          "internalType": "uint256",
          "name": "orderId",
          "type": "uint256"
        }
      ],
      "name": "confirmDelivery",
      "outputs": [],
      "stateMutability": "nonpayable",
      "type": "function"
    },
    {
      "inputs": [
        {
          "internalType": "uint256",
          "name": "orderId",
          "type": "uint256"
        },
        {
          "internalType": "address",
          "name": "deliveryMan",
          "type": "address"
        }
      ],
      "name": "assignDeliveryManToOrder",
      "outputs": [],
      "stateMutability": "nonpayable",
      "type": "function"
    },
    {
      "inputs": [
        {
          "internalType": "uint256",
          "name": "orderId",
          "type": "uint256"
        },
        {
          "internalType": "enum RepublicSurpriseContract.OrderStatus",
          "name": "status",
          "type": "uint8"
        },
        {
          "internalType": "string",
          "name": "note",
          "type": "string"
        },
        {
          "internalType": "string",
          "name": "proofImage",
          "type": "string"
        }
      ],
      "name": "deliveryAddStatus",
      "outputs": [],
      "stateMutability": "nonpayable",
      "type": "function"
    },
    {
      "inputs": [
        {
          "internalType": "uint256",
          "name": "orderId",
          "type": "uint256"
        },
        {
          "internalType": "enum RepublicSurpriseContract.OrderStatus",
          "name": "status",
          "type": "uint8"
        },
        {
          "internalType": "string",
          "name": "note",
          "type": "string"
        },
        {
          "internalType": "string",
          "name": "proofImage",
          "type": "string"
        }
      ],
      "name": "deliveryUpdateStatus",
      "outputs": [],
      "stateMutability": "nonpayable",
      "type": "function"
    },
    {
      "inputs": [
        {
          "internalType": "uint256",
          "name": "orderId",
          "type": "uint256"
        }
      ],
      "name": "getDeliveryHistory",
      "outputs": [
        {
          "components": [
            {
              "internalType": "enum RepublicSurpriseContract.OrderStatus",
              "name": "status",
              "type": "uint8"
            },
            {
              "internalType": "string",
              "name": "note",
              "type": "string"
            },
            {
              "internalType": "string",
              "name": "proofImage",
              "type": "string"
            },
            {
              "internalType": "uint256",
              "name": "timestamp",
              "type": "uint256"
            },
            {
              "internalType": "address",
              "name": "actor",
              "type": "address"
            }
          ],
          "internalType": "struct RepublicSurpriseContract.DeliveryLog[]",
          "name": "",
          "type": "tuple[]"
        }
      ],
      "stateMutability": "view",
      "type": "function"
    },
    {
      "inputs": [
        {
          "internalType": "uint256",
          "name": "orderId",
          "type": "uint256"
        }
      ],
      "name": "getOrderDetail",
      "outputs": [
        {
          "components": [
            {
              "internalType": "uint256",
              "name": "id",
              "type": "uint256"
            },
            {
              "internalType": "address",
              "name": "buyer",
              "type": "address"
            },
            {
              "internalType": "uint256",
              "name": "productId",
              "type": "uint256"
            },
            {
              "internalType": "uint256",
              "name": "qty",
              "type": "uint256"
            },
            {
              "internalType": "uint256",
              "name": "paid",
              "type": "uint256"
            },
            {
              "internalType": "enum RepublicSurpriseContract.OrderStatus",
              "name": "status",
              "type": "uint8"
            },
            {
              "internalType": "string",
              "name": "deliveryId",
              "type": "string"
            },
            {
              "internalType": "string",
              "name": "proofImage",
              "type": "string"
            }
          ],
          "internalType": "struct RepublicSurpriseContract.Order",
          "name": "",
          "type": "tuple"
        }
      ],
      "stateMutability": "view",
      "type": "function"
    },
    {
      "inputs": [
        {
          "internalType": "address",
          "name": "deliveryMan",
          "type": "address"
        }
      ],
      "name": "getOrdersForDelivery",
      "outputs": [
        {
          "internalType": "uint256[]",
          "name": "",
          "type": "uint256[]"
        }
      ],
      "stateMutability": "view",
      "type": "function"
    },
    {
      "inputs": [
        {
          "internalType": "uint256",
          "name": "totalAmount",
          "type": "uint256"
        }
      ],
      "name": "createUserOrder",
      "outputs": [],
      "stateMutability": "nonpayable",
      "type": "function"
    },
    {
      "inputs": [
        {
          "internalType": "uint256",
          "name": "id",
          "type": "uint256"
        },
        {
          "internalType": "enum RepublicSurpriseContract.UserOrderStatus",
          "name": "status",
          "type": "uint8"
        }
      ],
      "name": "updateUserOrderStatus",
      "outputs": [],
      "stateMutability": "nonpayable",
      "type": "function"
    },
    {
      "inputs": [
        {
          "internalType": "uint256",
          "name": "orderId",
          "type": "uint256"
        },
        {
          "internalType": "uint256",
          "name": "productId",
          "type": "uint256"
        }
      ],
      "name": "paywithMetamask",
      "outputs": [],
      "stateMutability": "payable",
      "type": "function"
    },
    {
      "inputs": [
        {
          "internalType": "address payable",
          "name": "to",
          "type": "address"
        },
        {
          "internalType": "uint256",
          "name": "amount",
          "type": "uint256"
        }
      ],
      "name": "withdraw",
      "outputs": [],
      "stateMutability": "nonpayable",
      "type": "function"
    }
  ],
  "bytecode": "0x60808060405234620000d3576005546001908181811c91168015620000c8575b6020821014620000b257601f81116200007f575b507f52657075626c69632053757270726973652053686f700000000000000000002c600555600080546001600160a01b031990811633179091558154169055613d7c9081620000d98239f35b600560005281601f6020600020920160051c8201915b828110620000a557505062000033565b6000815501829062000095565b634e487b7160e01b600052602260045260246000fd5b90607f16906200001f565b600080fdfe6080604052600436101561001b575b361561001957600080fd5b005b60003560e01c8063018bdf8914611e1d57806301cecd1414612b6457806307973ccf14612b465780630ace36eb14612a0d57806322da71a11461287d5780632453ffa81461285f57806324d7806c146123475780632af00510146123ba5780632ee092c1146114645780633e311a4f14612386578063429b62e5146123475780634477a4af1461225b578063550c807d146121a857806355fd0afa1461213d578063630a195b146113f55780636e0e5332146120b05780637048027514611f295780637acc0b2014611e7657806387d8178914611e3a5780638c432b1814611e1d5780638da5cb5b14611df457806399331fdf146116bb57806399374642146116775780639a011de9146115c3578063a85c38ef146114f9578063a87430ba146114a3578063b0ba40a914611464578063c8ebb5381461140c578063d7380ca0146113f5578063d7e0b6e3146112b6578063d99503ec14611298578063e0f6ef871461127a578063e23803ca14610d91578063e4c79a4a14610c1f578063ec96963614610b1c578063edef139f14610a7d578063f0f5f53b14610a4c578063f3fef3a31461099e578063f50b225914610980578063f5ec2eed1461089a578063f851a44014610871578063f95e1abb1461066f578063fd77e5de146105df5763fd84cb970361000e57346105da5760203660031901126105da57600760043533600052600260205261023460ff60406000205416613213565b80600052600c602052604060002061024e81541515613997565b60058101805490600460ff83169261026584612fb7565b6102726003809514613a17565b60ff191617905582600080516020613ce7833981519152602060405160048152a26102d9604051926102a384613197565b6012845271111153125591549657d0d3d391925493515160721b60208501526102d260405180978193016130af565b03856131cd565b82600052600f602052604060002090604051916102f583613160565b600483526020830191848352866040850152426060850152336080850152815491600160401b83101561052857600183018082558310156105c457600052602060002092610352855161034781612fb7565b6005850286016136b0565b518051906001600160401b03821161052857819061038a8261037c6001600589028a010154613075565b6001600589028a0101613494565b602090601f83116001146105495760009261053e575b50508160011b9160001990841b1c191617600160058402850101555b60026005830284010160408501518051906001600160401b038211610528576103ef826103e98554613075565b85613494565b602090601f83116001146104a55793600080516020613d07833981519152989693836005946104869a989460049860009261049a575b50508160011b9160001990851b1c19161790555b6060860151908383028501015502010190608060018060a01b03910151166001600160601b0360a01b82541617905561049560405192839260048452606060208501526060840190612fc1565b82810360408401523396612fc1565b0390a3005b015190503880610425565b90601f198316918460005260206000209260005b8181106105105750846104869a989460049894600080516020613d078339815191529d9b9894600598600195106104f8575b505050811b019055610439565b015160001983871b60f8161c191690553880806104eb565b929360206001819287860151815501950193016104b9565b634e487b7160e01b600052604160045260246000fd5b0151905038806103a0565b92506001600586028701016000526020600020906000935b601f19841685106105a9576001945083601f19811610610591575b505050811b01600160058402850101556103bc565b015160001983861b60f8161c1916905538808061057c565b81810151835560209485019460019093019290910190610561565b634e487b7160e01b600052603260045260246000fd5b600080fd5b346105da5760203660031901126105da5760043533600052600260205261060d60ff60406000205416613213565b8060005260086020526106266040600020541515613509565b8060005260086020526005604060002001600160ff198254161790557fb87b530dbf7e96bcdf03e8c51bea4a9900239ee28d9327ac38c8ef2f0bb96fe9602060405160018152a2005b346105da5761067d36613001565b9190336000526020906002825261069b60ff60406000205416613213565b82600052600c82526040600020936106b585541515613997565b6005850180549560ff8716966106ca88612fb7565b60018098036108415760ff191660021782556006016001600160401b03831161052857610701836106fb8354613075565b83613494565b600096601f84116001146107c45761075d60ff600080516020613cc7833981519152948694858b988b966100199e6000936107b9575b501b906000198860031b1c19161790555b541695604051936060855260608501916134e8565b61076686612fb7565b8582840152600083820391826040860152520190a26f4f55545f464f525f44454c495645525960801b6040519261079c84613197565b60108452830152604051926107b0846131b2565b600084526136c8565b8c013592508f610737565b601f1984169782600052866000209860005b81811061082c5750600080516020613cc783398151915294869489946100199c61075d958d9a60ff9610610812575b505086811b019055610748565b8b013560001960038a901b60f8161c191690558d80610805565b878301358b55998301999188019188016107d6565b60405162461bcd60e51b81526004810187905260086024820152671b9bdd081c185a5960c21b6044820152606490fd5b346105da5760003660031901126105da576001546040516001600160a01b039091168152602090f35b346105da5760003660031901126105da5760405160006005546108bc81613075565b8084529060019081811690811561095957506001146108fe575b6108fa846108e6818603826131cd565b604051918291602083526020830190612fc1565b0390f35b6005600090815292507f036b6384b5eca791c62761152d0c79bb0604c104a5fb6f4eb0703f3154bb3db05b8284106109415750505081016020016108e6826108d6565b80546020858701810191909152909301928101610929565b60ff191660208087019190915292151560051b850190920192506108e691508390506108d6565b346105da5760003660031901126105da576020600754604051908152f35b346105da5760403660031901126105da576004356001600160a01b038116908190036105da57602435903360005260026020526109e260ff60406000205416613213565b478211610a155760008080938193828215610a0c575bf115610a0057005b6040513d6000823e3d90fd5b506108fc6109f8565b60405162461bcd60e51b815260206004820152600f60248201526e657863656564732062616c616e636560881b6044820152606490fd5b346105da5760203660031901126105da57600435600052600860205260206004604060002001541515604051908152f35b346105da5760403660031901126105da5760043560243560068110156105da5760207f85f98c7512cd5700f6bd1982118fe6082e8c565428b4c8799b91bcbf7832e9c1913360005260028252610ada60ff60406000205416613213565b8360005260108252610b0a8160036040600020610b0460018060a01b036001830154161515613997565b016136b0565b60405190610b1781612fb7565b8152a2005b346105da5760403660031901126105da576004356024356001600160a01b038116908190036105da5733600052602060028152610b6060ff60406000205416613213565b816000526003815260ff6040600020541615610bec57600e9083600052600c8152610b916040600020541515613997565b83600052600d81526040600020836001600160601b0360a01b8254161790558260005252610bc3826040600020613a51565b33917ff457389f82700849408bf8a2854d1bb1e77de36c18a584bb48edce6cb461a8f4600080a4005b6064906040519062461bcd60e51b82526004820152600c60248201526b6e6f742064656c697665727960a01b6044820152fd5b346105da576020806003193601126105da57606060e0604051610c418161317b565b600081526000848201526000604082015260008382015260006080820152600060a08201528260c08201520152600435600052600c815260406000206108fa600760405192610c8f8461317b565b8054845260018101546001600160a01b03908116868601908152600283015460408701908152600384015460608801908152600485015460808901908152600586015460a08a019591949293929060ff16610ce981612fb7565b8652610d2860405197610d0a89610d0381600685016130af565b038a6131cd565b60c08c01988952610d21604051809b8193016130af565b03896131cd565b60e08a019788526040519a8b9a818c5251908b0152511660408901525160608801525160808701525160a086015251610d6081612fb7565b60c085015251610d7e610100918260e0870152610120860190612fc1565b915190601f198584030190850152612fc1565b610d9a36613030565b90341561124b5780600052600c60205260406000205461121757816000526008602052610dcd60406000205415156135b5565b816000526008602052604060002060ff600582015416600281101561120157610df690156135f5565b600481016003815492610e0a841515613634565b610e17600185101561366f565b0154610e24811515613566565b34036111c95760001982019182116111b35755604051604081018181106001600160401b0382111761052857604052338152600160208201348152836000526013602052604060002092828060a01b039051166001600160601b0360a01b8454161783555191015560405191610e998361317b565b81835233602084015280604084015260016060840152346080840152600160a0840152604051610ec8816131b2565b6000815260c0840152604051610edd816131b2565b6000815260e084015281600052600c6020526040600020835181556001810160018060a01b036020860151166001600160601b0360a01b825416179055604084015160028201556060840151600382015560808401516004820155610f5260a0850151610f4981612fb7565b600583016136b0565b60c08401518051906001600160401b03821161052857610f8282610f796006860154613075565b60068601613494565b602090601f831160011461113e57918060e09492600794600092611133575b50508160011b916000199060031b1c19161760068201555b019301519283516001600160401b03811161052857610fe281610fdc8454613075565b84613494565b6020601f82116001146110a657908060809493927f136333a1c3b206d34cce3dda5c5f12f2a06f154d243f4c5406cbc2ebda94749c969760009261109b575b50508160011b916000199060031b1c19161790555b600b548411611092575b7f4f2d18324ee95128de091ed2adc501295479000ce4c2cec607aeb1b67e189e2f6060604051868152336020820152346040820152a160405190815233602082015260016040820152346060820152a2005b83600b55611040565b015190508780611021565b601f198216958360005260206000209660005b81811061111b575096600192849260809796957f136333a1c3b206d34cce3dda5c5f12f2a06f154d243f4c5406cbc2ebda94749c999a10611102575b505050811b019055611036565b015160001960f88460031b161c191690558780806110f5565b838301518955600190980197602093840193016110b9565b015190508880610fa1565b906006840160005260206000209160005b601f198516811061119b57509260e0949260019260079583601f19811610611182575b505050811b016006820155610fb9565b015160001960f88460031b161c19169055888080611172565b9192602060018192868501518155019401920161114f565b634e487b7160e01b600052601160045260246000fd5b60405162461bcd60e51b815260206004820152601060248201526f1a5b98dbdc9c9958dd08185b5bdd5b9d60821b6044820152606490fd5b634e487b7160e01b600052602160045260246000fd5b60405162461bcd60e51b815260206004820152600c60248201526b6f726465722065786973747360a01b6044820152606490fd5b60405162461bcd60e51b81526020600482015260076024820152660706179203e20360cc1b6044820152606490fd5b346105da5760003660031901126105da576020600654604051908152f35b346105da5760003660031901126105da576020601254604051908152f35b346105da5760403660031901126105da576112cf612fa1565b6024359060018060a01b03811691826000526020906009825260ff600160406000200154166113c257600a5461130d61130782613549565b9161343f565b80600a556040519460608601908682106001600160401b03831117610528577f4c5d15f5779ae1ecd7d55bd3283d898e29c35743d172bd7b83a16e17bc0afe2a96611398938593604052815260028782016001815260408301908882528b60005260098a52604060002093518455600184019051151560ff80198354169116179055519101556132a0565b6113a560405180926131ee565b84600080516020613d27833981519152843393a3604051908152a2005b60405162461bcd60e51b815260048101839052600b60248201526a557365722065786973747360a81b6044820152606490fd5b346105da5761001961140636613046565b9061324c565b346105da5760403660031901126105da57611425612fa1565b6001600160a01b03166000908152601160205260409020805460243591908210156105da57602091611456916131fb565b90546040519160031b1c8152f35b346105da5760203660031901126105da576001600160a01b03611485612fa1565b166000526003602052602060ff604060002054166040519015158152f35b346105da5760203660031901126105da576001600160a01b036114c4612fa1565b16600052600960205260606040600020805490600260ff60018301541691015490604051928352151560208301526040820152f35b346105da5760203660031901126105da57600435600052600c602052604060002080546108fa60076115b560018060a01b03600186015416946002810154600382015460048301549060ff6005850154169261157a6040519561156a8761156381600685016130af565b03886131cd565b611563604051809a8193016130af565b604051998a998a5260208a015260408901526060880152608087015261159f81612fb7565b60a08601526101008060c0870152850190612fc1565b9083820360e0850152612fc1565b346105da576020806003193601126105da576001600160a01b036115e5612fa1565b16600052600e8152604060002060405190818382549182815201908192600052846000209060005b86828210611663578686611623828803836131cd565b604051928392818401908285525180915260408401929160005b82811061164c57505050500390f35b83518552869550938101939281019260010161163d565b83548552909301926001928301920161160d565b346105da5760203660031901126105da576001600160a01b03611698612fa1565b166000526004602052602060ff604060002054166116b960405180926131ee565bf35b60603660031901126105da576044356001600160401b0381116105da576116e6903690600401612f19565b60243515611dc5576004356000526008602052604060002061170a815415156135b5565b60ff60058201541660028110156112015761172590156135f5565b6003810154908115611d905760040161175c815492611745841515613634565b61175360243585101561366f565b602435906135a2565b3403611d5b5760243582039182116111b3575561177a600b5461343f565b9081600b556117be6040519361178f8561317b565b838552602085019233845260043560408701526024356060870152346080870152600160a0870152369161344e565b60c084019081526040516117d1816131b2565b6000815260e085015282600052600c6020526040600020918451835560018060a01b0390511660018301906001600160601b0360a01b82541617905560408401516002830155606084015160038301556080840151600483015561184560a085015161183c81612fb7565b600584016136b0565b519283516001600160401b0381116105285761186881610f796006860154613075565b6020601f8211600114611ce857819060e0949596600092611cdd575b50508160011b916000199060031b1c19161760068401555b01518051906001600160401b038211610528576118c9826118c06007860154613075565b60078601613494565b602090601f8311600114611c6d576007929160009183611c62575b50508160011b916000199060031b1c1916179101555b807f136333a1c3b206d34cce3dda5c5f12f2a06f154d243f4c5406cbc2ebda94749c608060405160043581523360208201526024356040820152346060820152a26040519061194882613197565b600a82526913d491115497d410525160b21b602083015260405161196b816131b2565b6000815281600052600f6020526040600020926040519061198b82613160565b60018252806020830152826040830152426060830152336080830152845494600160401b86101561052857600186018082558610156105c4576000526020600020916119e681516119db81612fb7565b6005880285016136b0565b60208101518051906001600160401b038211610528578190611a2282611a14600160058d028a010154613075565b600160058d028a0101613494565b602090601f8311600114611be657600092611bdb575b50508160011b916000199060031b1c191617600160058802850101555b6040810151928351966001600160401b03881161052857878795611a9560209a611a8760026005870288010154613075565b600260058702880101613494565b8990601f8311600114611b4757610486959383600494600080516020613d07833981519152999794600594600092611b3c575b50508160011b916000199060031b1c1916176002838302850101555b606085015160038383028501015502010190608060018060a01b03910151166001600160601b0360a01b825416179055611b316040519283926001845260608a8501526060840190612fc1565b0390a3604051908152f35b015190508e80611ac8565b906002600585028601016000528a6000209160005b601f1985168110611bc1575093600184600080516020613d078339815191529997946005946104869a98600498601f19811610611ba8575b505050811b01600283830285010155611ae4565b015160001960f88460031b161c191690558e8080611b94565b8183015184558b9950600190930192918c01918c01611b5c565b015190508880611a38565b9250600160058a028701016000526020600020906000935b601f1984168510611c47576001945083601f19811610611c2e575b505050811b0160016005880285010155611a55565b015160001960f88460031b161c19169055888080611c19565b81810151835560209485019460019093019290910190611bfe565b0151905085806118e4565b906007840160005260206000209160005b601f1985168110611cc55750918391600193600795601f19811610611cac575b505050811b019101556118fa565b015160001960f88460031b161c19169055858080611c9e565b91926020600181928685015181550194019201611c7e565b015190508680611884565b6006840160005260206000209560005b601f1984168110611d43575095829160e0959697600194601f19811610611d2a575b505050811b01600684015561189c565b015160001960f88460031b161c19169055868080611d1a565b82820151885560019097019660209283019201611cf8565b60405162461bcd60e51b815260206004820152600d60248201526c1ddc9bdb99c81c185e5b595b9d609a1b6044820152606490fd5b60405162461bcd60e51b815260206004820152600d60248201526c1b5bd91948191a5cd8589b1959609a1b6044820152606490fd5b60405162461bcd60e51b81526020600482015260076024820152660717479203e20360cc1b6044820152606490fd5b346105da5760003660031901126105da576000546040516001600160a01b039091168152602090f35b346105da57610019611e2e36612f46565b94939093929192613a86565b346105da5760203660031901126105da5760043560005260136020526040806000206001808060a01b0382541691015482519182526020820152f35b346105da5760203660031901126105da576004356000526008602052604060002080549060405190611eb682611eaf81600185016130af565b03836131cd565b60405190611ecb82611eaf81600285016130af565b611f0a600382015492611efc60ff60056004860154950154169560405197885260c0602089015260c0880190612fc1565b908682036040880152612fc1565b9160608501526080840152600282101561120157829160a08301520390f35b346105da576020806003193601126105da57611f43612fa1565b6000546001600160a01b0391908216330361207e57811690811561204b57816000526004835260ff6040600020541690600284528260406000209160ff199260018482541617905560038652604060002083815416905560015490811615612036575b5050600484526003604060002091825416179055611fc760405180926131ee565b600383820152817faf3bf2825874494a67381477ec0c70888ffb3dbd02763893f65cac7bcb92337060403393a3600080516020613d2783398151915260405192827f44d6d25963f097ad14f29f06854a01f575648a1ef82f30e562ccd3889717e339600080a2600384523393a3005b6001600160a01b031916176001558285611fa6565b60405162461bcd60e51b815260048101849052600b60248201526a189859081858d8dbdd5b9d60aa1b6044820152606490fd5b60405162461bcd60e51b815260048101849052600a6024820152696f776e6572206f6e6c7960b01b6044820152606490fd5b346105da5760203660031901126105da576004353360005260026020526120de60ff60406000205416613213565b8060005260086020526120f76040600020541515613509565b806000526008602052600560406000200160ff1981541690557fb87b530dbf7e96bcdf03e8c51bea4a9900239ee28d9327ac38c8ef2f0bb96fe9602060405160008152a2005b346105da5760203660031901126105da57600435600052601060205260a06040600020805490600180841b03600182015416906002810154600460ff600384015416920154926040519485526020850152604084015261219c81612fb7565b60608301526080820152f35b346105da576121b636613030565b906000526008602052604060002090604051906121d282613145565b825482526040516121f1816121ea81600188016130af565b03826131cd565b602083015260405161220a816121ea81600288016130af565b604083015260ff600560038501549460608501958652600481015460808601520154169260028410156112015760209360a06122539401525161224e811515613566565b6135a2565b604051908152f35b346105da5760203660031901126105da57600435601254600181018082116111b35760125560405161228c81613160565b8181526004602082013381526122fe604084018681526060850190600082526080860193428552876000526010602052604060002096518755600187019060018060a01b039051166001600160601b0360a01b825416179055516002860155516122f581612fb7565b600385016136b0565b51910155336000526011602052612319816040600020613a51565b6040519182527f2620fb2e77d17c14df0a56f96a70b857c65e3f9bd0281ac439c2c9ae4ec07b3460203393a3005b346105da5760203660031901126105da576001600160a01b03612368612fa1565b166000526002602052602060ff604060002054166040519015158152f35b346105da5760203660031901126105da57600435600052600d602052602060018060a01b0360406000205416604051908152f35b346105da576123c836613001565b919033600052600360205260ff60406000205416801561284b575b6123ec906139d5565b81600052600c60205260406000209061240782541515613997565b6005820191612425600260ff85541661241f81612fb7565b14613a17565b60078101906001600160401b0386116105285781612448876106fb889554613075565b866000601f82116001146127c357956124b192600080516020613cc783398151915294926124fa986000916127b8575b508a60011b906000198c60031b1c19161790555b600360ff198254161790556124c76040519283926060845260066060850191016130af565b60036020840152828103604084015289876134e8565b0390a2604051936124d785613197565b600f85526e141493d3d197d4d550935255151151608a1b6020860152369161344e565b9181600052600f60205260406000206040519061251682613160565b600382526020820190838252856040840152426060840152336080840152805490600160401b82101561052857600182018082558210156105c457600052602060002091612573845161256881612fb7565b6005840285016136b0565b518051906001600160401b0382116105285781906125ab8261259d60016005880289010154613075565b600160058802890101613494565b602090601f831160011461273c57600092612731575b50508160011b916000199060031b1c191617600160058302840101555b60026005820283010160408401518051906001600160401b0382116105285761260b826103e98554613075565b602090601f83116001146126ae579360049383600080516020613d078339815191529997946005946104869a986000926126a3575b50508160011b916000199060031b1c19161790555b606085015160038383028501015502010190608060018060a01b03910151166001600160601b0360a01b82541617905561049560405192839260038452606060208501526060840190612fc1565b015190508d80612640565b90601f198316918460005260206000209260005b8181106127195750846005946104869a989460049894600080516020613d078339815191529d9b9860019510612700575b505050811b019055612655565b015160001960f88460031b161c191690558d80806126f3565b929360206001819287860151815501950193016126c2565b0151905088806125c1565b92506001600585028601016000526020600020906000935b601f198416851061279d576001945083601f19811610612784575b505050811b01600160058302840101556125de565b015160001960f88460031b161c1916905588808061276f565b81810151835560209485019460019093019290910190612754565b90508701358b612478565b95919050601f198816816000528860206000209160005b81811061282d5750916124fa98600080516020613cc78339815191529694926124b1969410612813575b505060018a811b01905561248c565b88013560001960038d901b60f8161c191690558a80612804565b8989013584556020998a01998b98506001909401938c9350016127da565b50600260205260406000205460ff166123e3565b346105da5760003660031901126105da576020600b54604051908152f35b346105da576020806003193601126105da57600435600052600f81526040600020908154916001600160401b03831161052857604051916005936128c58282871b01856131cd565b808452818401809360005282600020866000925b84841061298b575050505050604051928184019082855251809152604081818601961b85010192916000955b8287106129125785850386f35b909192938280600192603f19898203018552875190815161293281612fb7565b815261295f61294d8484015160a08087860152840190612fc1565b60408401518382036040850152612fc1565b916060808201519083015260809081878060a01b03910151169101529601920196019592919092612905565b908560019260409997995161299f81613160565b60ff8654166129ad81612fb7565b81526040516129c2816121ea81898b016130af565b838201526040516129da816121ea8160028b016130af565b604082015260038601546060820152848060a01b03600487015416608082015281520192019201919087909694966128d9565b346105da576020806003193601126105da57612a27612fa1565b3360005260028252612a4060ff60406000205416613213565b6001600160a01b03168015612b1357806000526004825260ff6040600020541660038352604060002060ff1990600182825416179055600284526040600020818154169055600484526002604060002091825416179055612aa460405180926131ee565b600283820152817faf3bf2825874494a67381477ec0c70888ffb3dbd02763893f65cac7bcb92337060403393a3600080516020613d2783398151915260405192827fc46c392c15a2af92ff02ca27477e750573141241b368d7c76806720337439381600080a2600284523393a3005b60405162461bcd60e51b815260048101839052600b60248201526a189859081858d8dbdd5b9d60aa1b6044820152606490fd5b346105da5760003660031901126105da576020600a54604051908152f35b346105da5760803660031901126105da576004356001600160401b0381116105da57612b94903690600401612f19565b6024356001600160401b0381116105da57612bb3903690600401612f19565b92909160643593336000526002602052612bd460ff60406000205416613213565b8115612ee45760443515612eae578415612e7857612bf360065461343f565b9485600655612c2560405195612c0887613145565b878752612c1636868861344e565b9360208801948552369161344e565b604086019081526060860190604435825260808701928352600060a088015287600052600860205260406000209387518555518051906001600160401b038211610528578190612c8582612c7c60018a0154613075565b60018a01613494565b602090601f8311600114612e0657600092612dfb575b50508160011b916000199060031b1c19161760018501555b51805160028501916001600160401b03821161052857612cd7826103e98554613075565b602090601f8311600114612d8b579180600596949260a0989694600092612d80575b50508160011b916000199060031b1c19161790555b51600383015551600482015501930151926002841015611201577fcca07c742c5274e8b72111ba69566aa4442450bfc50bd897ea38d0170d1accfc9360ff80198354169116179055600654600755612d736040519283926040845260408401916134e8565b60443560208301520390a2005b015190508c80612cf9565b90601f198316918460005260206000209260005b818110612de3575092600192859260a09a989660059a989610612dca575b505050811b019055612d0e565b015160001960f88460031b161c191690558c8080612dbd565b92936020600181928786015181550195019301612d9f565b015190508a80612c9b565b9250600187016000526020600020906000935b601f1984168510612e5d576001945083601f19811610612e44575b505050811b016001850155612cb3565b015160001960f88460031b161c191690558a8080612e34565b81810151835560209485019460019093019290910190612e19565b60405162461bcd60e51b815260206004820152600e60248201526d14dd1bd8dac81c995c5d5a5c995960921b6044820152606490fd5b60405162461bcd60e51b815260206004820152600e60248201526d141c9a58d9481c995c5d5a5c995960921b6044820152606490fd5b60405162461bcd60e51b815260206004820152600d60248201526c1b985b59481c995c5d5a5c9959609a1b6044820152606490fd5b9181601f840112156105da578235916001600160401b0383116105da57602083818601950101116105da57565b60806003198201126105da576004359160243560068110156105da57916001600160401b03916044358381116105da5782612f8391600401612f19565b939093926064359182116105da57612f9d91600401612f19565b9091565b600435906001600160a01b03821682036105da57565b6006111561120157565b919082519283825260005b848110612fed575050826000602080949584010152601f8019910116010190565b602081830181015184830182015201612fcc565b9060406003198301126105da5760043591602435906001600160401b0382116105da57612f9d91600401612f19565b60409060031901126105da576004359060243590565b60409060031901126105da576004356001600160a01b03811681036105da579060243560058110156105da5790565b90600182811c921680156130a5575b602083101461308f57565b634e487b7160e01b600052602260045260246000fd5b91607f1691613084565b90600092918054916130c083613075565b91828252600193848116908160001461312257506001146130e2575b50505050565b90919394506000526020928360002092846000945b83861061310e5750505050010190388080806130dc565b8054858701830152940193859082016130f7565b9294505050602093945060ff191683830152151560051b010190388080806130dc565b60c081019081106001600160401b0382111761052857604052565b60a081019081106001600160401b0382111761052857604052565b61010081019081106001600160401b0382111761052857604052565b604081019081106001600160401b0382111761052857604052565b602081019081106001600160401b0382111761052857604052565b90601f801991011681019081106001600160401b0382111761052857604052565b9060058210156112015752565b80548210156105c45760005260206000200190600090565b1561321a57565b60405162461bcd60e51b815260206004820152600a60248201526961646d696e206f6e6c7960b01b6044820152606490fd5b9033600052600260205261326760ff60406000205416613213565b61327181836132a0565b61327e60405180926131ee565b33916001600160a01b031690600080516020613d2783398151915290602090a3565b6001600160a01b0390811690811561340c5760009282845260206004815260409260ff848720541695600584101591826133f857869060038603613398578183526002855286832060ff19906001828254161790556003865287842090815416905560015490811615613383575b50505b858152600483528481209161336f57509161336a917faf3bf2825874494a67381477ec0c70888ffb3dbd02763893f65cac7bcb923370949360ff1981541660ff8416179055613362845180986131ee565b8601906131ee565b3393a3565b634e487b7160e01b81526021600452602490fd5b6001600160a01b03191617600155853861330e565b505080915090600284146000146133d2578581526003835284812060ff199060018282541617905560028452858220908154169055613311565b8581526002835284812060ff199081815416905560038452858220908154169055613311565b634e487b7160e01b82526021600452602482fd5b60405162461bcd60e51b815260206004820152600b60248201526a189859081858d8dbdd5b9d60aa1b6044820152606490fd5b60001981146111b35760010190565b9291926001600160401b0382116105285760405191613477601f8201601f1916602001846131cd565b8294818452818301116105da578281602093846000960137010152565b90601f81116134a257505050565b600091825260208220906020601f850160051c830194106134de575b601f0160051c01915b8281106134d357505050565b8181556001016134c7565b90925082906134be565b908060209392818452848401376000828201840152601f01601f1916010190565b1561351057565b60405162461bcd60e51b8152602060048201526011602482015270141c9bd91d58dd081b9bdd08199bdd5b99607a1b6044820152606490fd5b80156135605760011461355b57600190565b600290565b50600390565b1561356d57565b60405162461bcd60e51b815260206004820152600d60248201526c7072696365206d697373696e6760981b6044820152606490fd5b818102929181159184041417156111b357565b156135bc57565b60405162461bcd60e51b81526020600482015260116024820152701c1c9bd91d58dd081b9bdd08199bdd5b99607a1b6044820152606490fd5b156135fc57565b60405162461bcd60e51b815260206004820152601060248201526f1a5b9858dd1a5d99481c1c9bd91d58dd60821b6044820152606490fd5b1561363b57565b60405162461bcd60e51b815260206004820152600c60248201526b4f7574206f662073746f636b60a01b6044820152606490fd5b1561367657565b60405162461bcd60e51b8152602060048201526012602482015271696e73756666696369656e742073746f636b60701b6044820152606490fd5b906136ba81612fb7565b60ff80198354169116179055565b919082600052600f6020526040600020604051906136e582613160565b6136ee83612fb7565b8282526020820190848252604083018781526060840190428252336080860152825492600160401b84101561052857600184018082558410156105c45760005260206000209361374d865161374281612fb7565b6005860287016136b0565b518051906001600160401b03821161052857819061378582613777600160058a028b010154613075565b600160058a028b0101613494565b602090601f831160011461391b57600092613910575b50508160011b916000199060031b1c191617600160058502860101555b518051600584028501600201916001600160401b038211610528576137e1826103e98554613075565b602090601f831160011461388e57928260049693600080516020613d078339815191529b9a99989693600596600092613883575b50508160011b916000199060031b1c19161790555b5160038383028501015502010190608060018060a01b03910151166001600160601b0360a01b82541617905561387e610486604051938361386b8695612fb7565b8452606060208501526060840190612fc1565b0390a3565b015190503880613815565b90601f198316918460005260206000209260005b8181106138f8575093600080516020613d078339815191529b9a99989693600596936001938360049b98106138df575b505050811b01905561382a565b015160001960f88460031b161c191690553880806138d2565b929360206001819287860151815501950193016138a2565b01519050388061379b565b92506001600587028801016000526020600020906000935b601f198416851061397c576001945083601f19811610613963575b505050811b01600160058502860101556137b8565b015160001960f88460031b161c1916905538808061394e565b81810151835560209485019460019093019290910190613933565b1561399e57565b60405162461bcd60e51b815260206004820152600f60248201526e1bdc99195c881b9bdd08199bdd5b99608a1b6044820152606490fd5b156139dc57565b60405162461bcd60e51b815260206004820152601360248201527264656c69766572792f61646d696e206f6e6c7960681b6044820152606490fd5b15613a1e57565b60405162461bcd60e51b815260206004820152600b60248201526a77726f6e6720737461746560a81b6044820152606490fd5b8054600160401b81101561052857613a6e916001820181556131fb565b819291549060031b91821b91600019901b1916179055565b93919095949260003381526020906003825260409060ff82822054168015613cb5575b613ab2906139d5565b878152600c8352818120613ac881541515613997565b3382526002845260ff838320541615613c52575b613ae98b600583016136b0565b87613b36575b505092613b349798949287600080516020613ce7833981519152613b2694613b2e9751613b1b8a612fb7565b898152a2369161344e565b93369161344e565b926136c8565b565b600701906001600160401b038811613c3e57613b5688610fdc8454613075565b80601f8911600114613bbd57613b2694613b2e9794613b349c9d9997948b8d95600080516020613ce78339815191529591613bb2575b5060001960038e901b1c191660018d901b1790555b9497509450508194969a9950613aef565b905089013538613b8c565b90601f198916838352858320925b818110613c27575094613b2e9794613b349c9d9997948c94600080516020613ce7833981519152948d613b269a10613c0d575b505060018c811b019055613ba1565b8a013560001960038f901b60f8161c191690553880613bfe565b91928660018192868d013581550194019201613bcb565b634e487b7160e01b81526041600452602490fd5b613c5b8b612fb7565b60028b148015613ca2575b613adc57825162461bcd60e51b815260048101859052601160248201527061646d696e206f6e6c792073746174757360781b6044820152606490fd5b50613cac8b612fb7565b60038b14613c66565b50600283528181205460ff16613aa956fe32c2116247d915247da6567f4b03632268e8a226a744c8e414e8946a943f19fa15fe7663e318fda785235fa9e39aa6923ffd39fe53631991197fb842f34f6ba965bd8b7d5aac2eeb48eae97aa2dc858082e5d2395d5eaa4ef01ec2f8516e9b8d2459ac88ac07c4020108de12f1f8675bbf7e6928b4cfc156bde4727aacf78973a2646970667358221220bb99766093de331bfa82271d0986969c5c3c1bebd7f818fb12be273dcdca961c64736f6c63430008130033",
  "immutableReferences": {},
  "source": "// SPDX-License-Identifier: MIT\r\npragma solidity ^0.8.19;\r\n\r\ncontract RepublicSurpriseContract {\r\n    // ---------- Roles ----------\r\n    address public owner;\r\n    address public admin; // keep legacy \"admin\" variable for compatibility\r\n    mapping(address => bool) public admins;\r\n    mapping(address => bool) public deliveryMen;\r\n    mapping(address => Role) public roles;\r\n\r\n    enum Role {\r\n        None,\r\n        Buyer,\r\n        Delivery,\r\n        Admin,\r\n        Seller\r\n    }\r\n\r\n    modifier onlyOwner() {\r\n        require(msg.sender == owner, \"owner only\");\r\n        _;\r\n    }\r\n\r\n    modifier onlyAdmin() {\r\n        require(admins[msg.sender], \"admin only\");\r\n        _;\r\n    }\r\n\r\n    modifier onlyDelivery() {\r\n        require(deliveryMen[msg.sender], \"delivery only\");\r\n        _;\r\n    }\r\n\r\n    modifier onlyDeliveryOrAdmin() {\r\n        require(\r\n            deliveryMen[msg.sender] || admins[msg.sender],\r\n            \"delivery/admin only\"\r\n        );\r\n        _;\r\n    }\r\n\r\n    // ---------- Company ----------\r\n    string public companyName;\r\n\r\n    constructor() {\n        companyName = \"Republic Surprise Shop\";\n        owner = msg.sender;\n        admin = address(0);\n    }\n\r\n    // --- Role management ---\r\n    event AdminAdded(address indexed account);\n    event DeliveryAdded(address indexed account);\n    event RoleAssigned(\n        address indexed account,\n        Role role,\n        address indexed actor\n    );\n    event RoleChanged(\n        address indexed account,\n        Role previousRole,\n        Role newRole,\n        address indexed actor\n    );\n\r\n    function addAdmin(address account) external onlyOwner {\n        _setRole(account, Role.Admin);\n        emit AdminAdded(account);\n        emit RoleAssigned(account, Role.Admin, msg.sender);\n    }\n\n    function addDeliveryMan(address account) external onlyAdmin {\n        _setRole(account, Role.Delivery);\n        emit DeliveryAdded(account);\n        emit RoleAssigned(account, Role.Delivery, msg.sender);\n    }\n\r\n    function isAdmin(address account) external view returns (bool) {\r\n        return admins[account];\r\n    }\r\n\r\n    function isDelivery(address account) external view returns (bool) {\r\n        return deliveryMen[account];\r\n    }\r\n\r\n    function assignRole(address account, Role role) external onlyAdmin {\n        _setRole(account, role);\n        emit RoleAssigned(account, role, msg.sender);\n    }\n\n    function changeRole(address account, Role role) external onlyAdmin {\n        _setRole(account, role);\n        emit RoleAssigned(account, role, msg.sender);\n    }\n\n    function _setRole(address account, Role role) internal {\n        require(account != address(0), \"bad account\");\n        Role previousRole = roles[account];\n\n        if (role == Role.Admin) {\n            admins[account] = true;\n            deliveryMen[account] = false;\n            if (admin == address(0)) {\n                admin = account;\n            }\n        } else if (role == Role.Delivery) {\n            deliveryMen[account] = true;\n            admins[account] = false;\n        } else {\n            admins[account] = false;\n            deliveryMen[account] = false;\n        }\n\n        roles[account] = role;\n        emit RoleChanged(account, previousRole, role, msg.sender);\n    }\n\n    function _roleForRegistration(uint256 index) internal pure returns (Role) {\n        if (index == 0) return Role.Admin;\n        if (index == 1) return Role.Delivery;\n        return Role.Buyer;\n    }\n\r\n    // ---------- Product ----------\r\n    enum ProductStatus {\r\n        Active,\r\n        Inactive\r\n    }\r\n\r\n    struct Product {\r\n        uint256 id;\r\n        string name;\r\n        string description;\r\n        uint256 priceWei;\r\n        uint256 stock;\r\n        ProductStatus status;\r\n    }\r\n\r\n    uint256 public productCount;\r\n    uint256 public RepublicSurpriseCount;\r\n\r\n    mapping(uint256 => Product) public products;\r\n\r\n    // ---------- Product Events ----------\r\n    event ProductAdded(uint256 indexed id, string name, uint256 priceWei);\r\n    event ProductStatusChanged(uint256 indexed id, ProductStatus status);\r\n\r\n    function _validateProductConfig(\r\n        uint256 priceWei,\r\n        uint256 stock\r\n    ) internal pure {\r\n        require(priceWei > 0, \"Price required\");\r\n        require(stock > 0, \"Stock required\");\r\n    }\r\n\r\n    function isInStock(uint256 id) public view returns (bool) {\r\n        return products[id].stock > 0;\r\n    }\r\n\r\n    // Add product (auto-increment id)\r\n    function addProduct(\r\n        string calldata name,\r\n        string calldata description,\r\n        uint256 priceWei,\r\n        uint256 stock\r\n    ) public onlyAdmin {\r\n        require(bytes(name).length > 0, \"name required\");\r\n\r\n        _validateProductConfig(priceWei, stock);\r\n\r\n        uint256 id = ++productCount;\r\n\r\n        products[id] = Product({\r\n            id: id,\r\n            name: name,\r\n            description: description,\r\n            priceWei: priceWei,\r\n            stock: stock,\r\n            status: ProductStatus.Active\r\n        });\r\n\r\n        RepublicSurpriseCount = productCount;\r\n\r\n        emit ProductAdded(id, name, priceWei);\r\n    }\r\n\r\n    function deactivateProduct(uint256 id) public onlyAdmin {\r\n        require(products[id].id != 0, \"Product not found\");\r\n        products[id].status = ProductStatus.Inactive;\r\n\r\n        emit ProductStatusChanged(id, ProductStatus.Inactive);\r\n    }\r\n\r\n    function reactivateProduct(uint256 id) public onlyAdmin {\r\n        require(products[id].id != 0, \"Product not found\");\r\n        products[id].status = ProductStatus.Active;\r\n\r\n        emit ProductStatusChanged(id, ProductStatus.Active);\r\n    }\r\n\r\n    // ---------- Users (on-chain status only) ----------\r\n    struct UserProfile {\r\n        uint256 id;\r\n        bool exists;\r\n        bytes32 profileHash;\r\n    }\r\n\r\n    mapping(address => UserProfile) public users;\r\n    uint256 public userCount;\r\n\r\n    event UserRegistered(address indexed user, bytes32 profileHash);\r\n    event UserProfileUpdated(address indexed user, bytes32 profileHash);\r\n\r\n    function registerUser(address user, bytes32 profileHash) public {\n        require(!users[user].exists, \"User exists\");\n        Role assignedRole = _roleForRegistration(userCount);\n        uint256 id = ++userCount;\n        users[user] = UserProfile(id, true, profileHash);\n        _setRole(user, assignedRole);\n        emit RoleAssigned(user, assignedRole, msg.sender);\n        emit UserRegistered(user, profileHash);\n    }\n\r\n    // ---------- Orders / Delivery (Merged main flow) ----------\r\n    enum OrderStatus {\r\n        Pending,\r\n        Paid,\r\n        OutForDelivery,\r\n        PendingConfirmation,\r\n        Completed,\r\n        Cancelled\r\n    }\r\n\r\n    struct Order {\r\n        uint256 id;\r\n        address buyer;\r\n        uint256 productId;\r\n        uint256 qty;\r\n        uint256 paid; // wei\r\n        OrderStatus status;\r\n        string deliveryId;\r\n        string proofImage; // base64 hash/URI if needed\r\n    }\r\n\r\n    uint256 public orderCount;\r\n    mapping(uint256 => Order) public orders;\r\n    mapping(uint256 => address) public orderDeliveryMan;\r\n    mapping(address => uint256[]) private ordersByDeliveryMan;\r\n\r\n    struct DeliveryLog {\r\n        OrderStatus status;\r\n        string note;\r\n        string proofImage;\r\n        uint256 timestamp;\r\n        address actor;\r\n    }\r\n\r\n    mapping(uint256 => DeliveryLog[]) private deliveryLogs;\r\n\r\n    event OrderCreated(\r\n        uint256 indexed orderId,\r\n        uint256 productId,\r\n        address buyer,\r\n        uint256 qty,\r\n        uint256 paid\r\n    );\r\n\r\n    event DeliveryStatus(\r\n        uint256 indexed orderId,\r\n        string deliveryId,\r\n        OrderStatus status,\r\n        string proofImage\r\n    );\r\n\r\n    event OrderStatusChanged(uint256 indexed orderId, OrderStatus status);\r\n    event DeliveryAssigned(\r\n        uint256 indexed orderId,\r\n        address indexed deliveryMan,\r\n        address indexed actor\r\n    );\r\n    event DeliveryLogAdded(\r\n        uint256 indexed orderId,\r\n        OrderStatus status,\r\n        address indexed actor,\r\n        string note,\r\n        string proofImage\r\n    );\r\n\r\n    function _logDelivery(\r\n        uint256 orderId,\r\n        OrderStatus status,\r\n        string memory note,\r\n        string memory proofImage\r\n    ) internal {\r\n        deliveryLogs[orderId].push(\r\n            DeliveryLog({\r\n                status: status,\r\n                note: note,\r\n                proofImage: proofImage,\r\n                timestamp: block.timestamp,\r\n                actor: msg.sender\r\n            })\r\n        );\r\n        emit DeliveryLogAdded(orderId, status, msg.sender, note, proofImage);\r\n    }\r\n\r\n    function productPrice(\r\n        uint256 productId,\r\n        uint256 qty\r\n    ) external view returns (uint256) {\r\n        Product memory p = products[productId];\r\n        uint256 unit = p.priceWei;\r\n        require(unit > 0, \"price missing\");\r\n        return unit * qty;\r\n    }\r\n\r\n    function buy(\r\n        uint256 productId,\r\n        uint256 qty,\r\n        string calldata deliveryId\r\n    ) external payable returns (uint256 orderId) {\r\n        require(qty > 0, \"qty > 0\");\r\n\r\n        Product storage p = products[productId];\r\n        require(p.id != 0, \"product not found\");\r\n        require(p.status == ProductStatus.Active, \"inactive product\");\r\n        require(p.priceWei > 0, \"mode disabled\");\r\n        require(p.stock > 0, \"Out of stock\");\r\n        require(p.stock >= qty, \"insufficient stock\");\r\n\r\n        uint256 unit = p.priceWei;\r\n        require(unit > 0, \"price missing\");\r\n        uint256 totalPrice = unit * qty;\r\n\r\n        require(msg.value == totalPrice, \"wrong payment\");\r\n\r\n        // debit stock\r\n        p.stock -= qty;\r\n\r\n        orderId = ++orderCount;\r\n        orders[orderId] = Order({\r\n            id: orderId,\r\n            buyer: msg.sender,\r\n            productId: productId,\r\n            qty: qty,\r\n            paid: msg.value,\r\n            status: OrderStatus.Paid,\r\n            deliveryId: deliveryId,\r\n            proofImage: \"\"\r\n        });\r\n\r\n        emit OrderCreated(orderId, productId, msg.sender, qty, msg.value);\r\n        _logDelivery(orderId, OrderStatus.Paid, \"ORDER_PAID\", \"\");\r\n    }\r\n\r\n    function markOutForDelivery(\r\n        uint256 orderId,\r\n        string calldata deliveryId\r\n    ) external onlyAdmin {\r\n        Order storage o = orders[orderId];\r\n        require(o.id != 0, \"order not found\");\r\n        require(o.status == OrderStatus.Paid, \"not paid\");\r\n\r\n        o.status = OrderStatus.OutForDelivery;\r\n        o.deliveryId = deliveryId;\r\n\r\n        emit DeliveryStatus(orderId, deliveryId, o.status, \"\");\r\n        _logDelivery(orderId, o.status, \"OUT_FOR_DELIVERY\", \"\");\r\n    }\r\n\r\n    // merged signature: allow delivery man OR admin (since old code used onlyAdmin)\r\n    function submitProof(\r\n        uint256 orderId,\r\n        string calldata proofImage\r\n    ) external onlyDeliveryOrAdmin {\r\n        Order storage o = orders[orderId];\r\n        require(o.id != 0, \"order not found\");\r\n        require(o.status == OrderStatus.OutForDelivery, \"wrong state\");\r\n\r\n        o.proofImage = proofImage;\r\n        o.status = OrderStatus.PendingConfirmation;\r\n\r\n        emit DeliveryStatus(orderId, o.deliveryId, o.status, proofImage);\r\n        _logDelivery(orderId, o.status, \"PROOF_SUBMITTED\", proofImage);\r\n    }\r\n\r\n    function confirmDelivery(uint256 orderId) external onlyAdmin {\r\n        Order storage o = orders[orderId];\r\n        require(o.id != 0, \"order not found\");\r\n        require(o.status == OrderStatus.PendingConfirmation, \"wrong state\");\r\n\r\n        o.status = OrderStatus.Completed;\r\n        emit OrderStatusChanged(orderId, o.status);\r\n        _logDelivery(orderId, o.status, \"DELIVERY_CONFIRMED\", o.proofImage);\r\n    }\r\n\r\n    function assignDeliveryManToOrder(\r\n        uint256 orderId,\r\n        address deliveryMan\r\n    ) external onlyAdmin {\r\n        require(deliveryMen[deliveryMan], \"not delivery\");\r\n        Order storage o = orders[orderId];\r\n        require(o.id != 0, \"order not found\");\r\n\r\n        orderDeliveryMan[orderId] = deliveryMan;\r\n        ordersByDeliveryMan[deliveryMan].push(orderId);\r\n        emit DeliveryAssigned(orderId, deliveryMan, msg.sender);\r\n    }\r\n\r\n    function deliveryAddStatus(\r\n        uint256 orderId,\r\n        OrderStatus status,\r\n        string calldata note,\r\n        string calldata proofImage\r\n    ) external onlyDeliveryOrAdmin {\r\n        _setDeliveryStatus(orderId, status, note, proofImage);\r\n    }\r\n\r\n    function deliveryUpdateStatus(\r\n        uint256 orderId,\r\n        OrderStatus status,\r\n        string calldata note,\r\n        string calldata proofImage\r\n    ) external onlyDeliveryOrAdmin {\r\n        _setDeliveryStatus(orderId, status, note, proofImage);\r\n    }\r\n\r\n    function _setDeliveryStatus(\r\n        uint256 orderId,\r\n        OrderStatus status,\r\n        string calldata note,\r\n        string calldata proofImage\r\n    ) internal {\r\n        Order storage o = orders[orderId];\r\n        require(o.id != 0, \"order not found\");\r\n\r\n        if (!admins[msg.sender]) {\r\n            require(\r\n                status == OrderStatus.OutForDelivery ||\r\n                    status == OrderStatus.PendingConfirmation,\r\n                \"admin only status\"\r\n            );\r\n        }\r\n\r\n        o.status = status;\r\n        if (bytes(proofImage).length > 0) {\r\n            o.proofImage = proofImage;\r\n        }\r\n\r\n        emit OrderStatusChanged(orderId, status);\r\n        _logDelivery(orderId, status, note, proofImage);\r\n    }\r\n\r\n    function getDeliveryHistory(\r\n        uint256 orderId\r\n    ) external view returns (DeliveryLog[] memory) {\r\n        return deliveryLogs[orderId];\r\n    }\r\n\r\n    function getOrderDetail(\r\n        uint256 orderId\r\n    ) external view returns (Order memory) {\r\n        return orders[orderId];\r\n    }\r\n\r\n    function getOrdersForDelivery(\r\n        address deliveryMan\r\n    ) external view returns (uint256[] memory) {\r\n        return ordersByDeliveryMan[deliveryMan];\r\n    }\r\n\r\n    // ---------- User Order Tracking (legacy) ---------- (angela)\r\n    enum UserOrderStatus {\r\n        Placed,\r\n        Paid,\r\n        Shipped,\r\n        Delivered,\r\n        Completed,\r\n        Cancelled\r\n    }\r\n\r\n    struct UserOrder {\r\n        uint256 id;\r\n        address buyer;\r\n        uint256 totalAmount;\r\n        UserOrderStatus status;\r\n        uint256 createdAt;\r\n    }\r\n\r\n    mapping(uint256 => UserOrder) public userOrders;\r\n    mapping(address => uint256[]) public userOrdersByUser;\r\n    uint256 public nextUserOrderId;\r\n\r\n    event UserOrderCreated(\r\n        uint256 indexed orderId,\r\n        address indexed buyer,\r\n        uint256 totalAmount\r\n    );\r\n    event UserOrderStatusUpdated(\r\n        uint256 indexed orderId,\r\n        UserOrderStatus status\r\n    );\r\n\r\n    function createUserOrder(uint256 totalAmount) external {\r\n        uint256 id = nextUserOrderId;\r\n        nextUserOrderId += 1;\r\n\r\n        userOrders[id] = UserOrder({\r\n            id: id,\r\n            buyer: msg.sender,\r\n            totalAmount: totalAmount,\r\n            status: UserOrderStatus.Placed,\r\n            createdAt: block.timestamp\r\n        });\r\n\r\n        userOrdersByUser[msg.sender].push(id);\r\n        emit UserOrderCreated(id, msg.sender, totalAmount);\r\n    }\r\n\r\n    function updateUserOrderStatus(\r\n        uint256 id,\r\n        UserOrderStatus status\r\n    ) external onlyAdmin {\r\n        UserOrder storage o = userOrders[id];\r\n        require(o.buyer != address(0), \"order not found\");\r\n        o.status = status;\r\n        emit UserOrderStatusUpdated(id, status);\r\n    }\r\n\r\n    // ---------- Legacy Payment (kept) ----------\r\n    struct Payment {\r\n        address buyer;\r\n        uint256 amountPaid; // wei\r\n    }\r\n\r\n    mapping(uint256 => Payment) public payments; // orderId -> payment\r\n\r\n    event Paid(uint256 orderId, address buyer, uint256 amountPaid);\r\n    function paywithMetamask(\r\n        uint256 orderId,\r\n        uint256 productId\r\n    ) public payable {\r\n        require(msg.value > 0, \"pay > 0\");\r\n        require(orders[orderId].id == 0, \"order exists\");\r\n        require(products[productId].id != 0, \"product not found\");\r\n\r\n        Product storage p = products[productId];\r\n        require(p.status == ProductStatus.Active, \"inactive product\");\r\n        require(p.stock > 0, \"Out of stock\");\r\n        require(p.stock >= 1, \"insufficient stock\");\r\n\r\n        require(p.priceWei > 0, \"price missing\");\r\n        require(msg.value == p.priceWei, \"incorrect amount\");\r\n\r\n        // debit 1 box\r\n        p.stock -= 1;\r\n\r\n        // store legacy payment record\r\n        payments[orderId] = Payment(msg.sender, msg.value);\r\n\r\n        // create merged order\r\n        orders[orderId] = Order({\r\n            id: orderId,\r\n            buyer: msg.sender,\r\n            productId: productId,\r\n            qty: 1,\r\n            paid: msg.value,\r\n            status: OrderStatus.Paid,\r\n            deliveryId: \"\",\r\n            proofImage: \"\"\r\n        });\r\n\r\n        // keep orderCount consistent (optional)\r\n        if (orderId > orderCount) orderCount = orderId;\r\n\r\n        emit Paid(orderId, msg.sender, msg.value);\r\n        emit OrderCreated(orderId, productId, msg.sender, 1, msg.value);\r\n    }\r\n\r\n    // ---------- Treasury ----------\r\n    function withdraw(address payable to, uint256 amount) external onlyAdmin {\r\n        require(amount <= address(this).balance, \"exceeds balance\");\r\n        to.transfer(amount);\r\n    }\r\n\r\n    // ---------- Safety ----------\r\n    receive() external payable {}\r\n}\r\n",
  "sourcePath": "C:\\Users\\24004264\\C373Projects\\FAproject\\contracts\\RepublicSurpriseContract.sol",
  "compiler": {
    "name": "solc",
    "version": "0.8.19+commit.7dd6d404.Emscripten.clang"
  },
  "schemaVersion": "3.4.16",
  "updatedAt": "2026-01-29T09:51:08.769Z",
  "devdoc": {
    "kind": "dev",
    "methods": {},
    "version": 1
  },
  "userdoc": {
    "kind": "user",
    "methods": {},
    "version": 1
  }
}