{
  "contractName": "RepublicSurpriseContract",
  "abi": [
    {
      "inputs": [],
      "stateMutability": "nonpayable",
      "type": "constructor"
    },
    {
      "anonymous": false,
      "inputs": [
        {
          "indexed": true,
          "internalType": "address",
          "name": "account",
          "type": "address"
        }
      ],
      "name": "AdminAdded",
      "type": "event"
    },
    {
      "anonymous": false,
      "inputs": [
        {
          "indexed": true,
          "internalType": "address",
          "name": "buyer",
          "type": "address"
        }
      ],
      "name": "CartCleared",
      "type": "event"
    },
    {
      "anonymous": false,
      "inputs": [
        {
          "indexed": true,
          "internalType": "address",
          "name": "buyer",
          "type": "address"
        },
        {
          "indexed": false,
          "internalType": "uint256",
          "name": "productId",
          "type": "uint256"
        },
        {
          "indexed": false,
          "internalType": "uint256",
          "name": "quantity",
          "type": "uint256"
        },
        {
          "indexed": false,
          "internalType": "bool",
          "name": "isSet",
          "type": "bool"
        }
      ],
      "name": "CartItemAdded",
      "type": "event"
    },
    {
      "anonymous": false,
      "inputs": [
        {
          "indexed": true,
          "internalType": "address",
          "name": "buyer",
          "type": "address"
        },
        {
          "indexed": false,
          "internalType": "uint256",
          "name": "productId",
          "type": "uint256"
        }
      ],
      "name": "CartItemRemoved",
      "type": "event"
    },
    {
      "anonymous": false,
      "inputs": [
        {
          "indexed": true,
          "internalType": "address",
          "name": "account",
          "type": "address"
        }
      ],
      "name": "DeliveryAdded",
      "type": "event"
    },
    {
      "anonymous": false,
      "inputs": [
        {
          "indexed": true,
          "internalType": "uint256",
          "name": "orderId",
          "type": "uint256"
        },
        {
          "indexed": true,
          "internalType": "address",
          "name": "deliveryMan",
          "type": "address"
        },
        {
          "indexed": true,
          "internalType": "address",
          "name": "actor",
          "type": "address"
        }
      ],
      "name": "DeliveryAssigned",
      "type": "event"
    },
    {
      "anonymous": false,
      "inputs": [
        {
          "indexed": true,
          "internalType": "uint256",
          "name": "orderId",
          "type": "uint256"
        },
        {
          "indexed": false,
          "internalType": "enum RepublicSurpriseContract.OrderStatus",
          "name": "status",
          "type": "uint8"
        },
        {
          "indexed": true,
          "internalType": "address",
          "name": "actor",
          "type": "address"
        },
        {
          "indexed": false,
          "internalType": "string",
          "name": "note",
          "type": "string"
        },
        {
          "indexed": false,
          "internalType": "string",
          "name": "proofImage",
          "type": "string"
        }
      ],
      "name": "DeliveryLogAdded",
      "type": "event"
    },
    {
      "anonymous": false,
      "inputs": [
        {
          "indexed": true,
          "internalType": "uint256",
          "name": "orderId",
          "type": "uint256"
        },
        {
          "indexed": false,
          "internalType": "string",
          "name": "deliveryId",
          "type": "string"
        },
        {
          "indexed": false,
          "internalType": "enum RepublicSurpriseContract.OrderStatus",
          "name": "status",
          "type": "uint8"
        },
        {
          "indexed": false,
          "internalType": "string",
          "name": "proofImage",
          "type": "string"
        }
      ],
      "name": "DeliveryStatus",
      "type": "event"
    },
    {
      "anonymous": false,
      "inputs": [
        {
          "indexed": true,
          "internalType": "uint256",
          "name": "orderId",
          "type": "uint256"
        },
        {
          "indexed": false,
          "internalType": "uint256",
          "name": "productId",
          "type": "uint256"
        },
        {
          "indexed": false,
          "internalType": "address",
          "name": "buyer",
          "type": "address"
        },
        {
          "indexed": false,
          "internalType": "uint256",
          "name": "qty",
          "type": "uint256"
        },
        {
          "indexed": false,
          "internalType": "bool",
          "name": "isSet",
          "type": "bool"
        },
        {
          "indexed": false,
          "internalType": "uint256",
          "name": "paid",
          "type": "uint256"
        }
      ],
      "name": "OrderCreated",
      "type": "event"
    },
    {
      "anonymous": false,
      "inputs": [
        {
          "indexed": true,
          "internalType": "uint256",
          "name": "orderId",
          "type": "uint256"
        },
        {
          "indexed": false,
          "internalType": "enum RepublicSurpriseContract.OrderStatus",
          "name": "status",
          "type": "uint8"
        }
      ],
      "name": "OrderStatusChanged",
      "type": "event"
    },
    {
      "anonymous": false,
      "inputs": [
        {
          "indexed": false,
          "internalType": "uint256",
          "name": "orderId",
          "type": "uint256"
        },
        {
          "indexed": false,
          "internalType": "address",
          "name": "buyer",
          "type": "address"
        },
        {
          "indexed": false,
          "internalType": "uint256",
          "name": "amountPaid",
          "type": "uint256"
        }
      ],
      "name": "Paid",
      "type": "event"
    },
    {
      "anonymous": false,
      "inputs": [
        {
          "indexed": true,
          "internalType": "uint256",
          "name": "id",
          "type": "uint256"
        },
        {
          "indexed": false,
          "internalType": "string",
          "name": "name",
          "type": "string"
        },
        {
          "indexed": false,
          "internalType": "uint256",
          "name": "priceWei",
          "type": "uint256"
        },
        {
          "indexed": false,
          "internalType": "bool",
          "name": "enableIndividual",
          "type": "bool"
        },
        {
          "indexed": false,
          "internalType": "bool",
          "name": "enableSet",
          "type": "bool"
        }
      ],
      "name": "ProductAdded",
      "type": "event"
    },
    {
      "anonymous": false,
      "inputs": [
        {
          "indexed": true,
          "internalType": "uint256",
          "name": "id",
          "type": "uint256"
        },
        {
          "indexed": false,
          "internalType": "enum RepublicSurpriseContract.ProductStatus",
          "name": "status",
          "type": "uint8"
        }
      ],
      "name": "ProductStatusChanged",
      "type": "event"
    },
    {
      "anonymous": false,
      "inputs": [
        {
          "indexed": true,
          "internalType": "address",
          "name": "account",
          "type": "address"
        },
        {
          "indexed": false,
          "internalType": "enum RepublicSurpriseContract.Role",
          "name": "role",
          "type": "uint8"
        },
        {
          "indexed": true,
          "internalType": "address",
          "name": "actor",
          "type": "address"
        }
      ],
      "name": "RoleAssigned",
      "type": "event"
    },
    {
      "anonymous": false,
      "inputs": [
        {
          "indexed": true,
          "internalType": "address",
          "name": "user",
          "type": "address"
        },
        {
          "indexed": false,
          "internalType": "string",
          "name": "action",
          "type": "string"
        },
        {
          "indexed": true,
          "internalType": "address",
          "name": "actor",
          "type": "address"
        },
        {
          "indexed": false,
          "internalType": "bytes32",
          "name": "profileHash",
          "type": "bytes32"
        },
        {
          "indexed": false,
          "internalType": "bool",
          "name": "active",
          "type": "bool"
        },
        {
          "indexed": false,
          "internalType": "uint256",
          "name": "timestamp",
          "type": "uint256"
        }
      ],
      "name": "UserAuditLogged",
      "type": "event"
    },
    {
      "anonymous": false,
      "inputs": [
        {
          "indexed": true,
          "internalType": "uint256",
          "name": "orderId",
          "type": "uint256"
        },
        {
          "indexed": true,
          "internalType": "address",
          "name": "buyer",
          "type": "address"
        },
        {
          "indexed": false,
          "internalType": "uint256",
          "name": "totalAmount",
          "type": "uint256"
        }
      ],
      "name": "UserOrderCreated",
      "type": "event"
    },
    {
      "anonymous": false,
      "inputs": [
        {
          "indexed": true,
          "internalType": "uint256",
          "name": "orderId",
          "type": "uint256"
        },
        {
          "indexed": false,
          "internalType": "enum RepublicSurpriseContract.UserOrderStatus",
          "name": "status",
          "type": "uint8"
        }
      ],
      "name": "UserOrderStatusUpdated",
      "type": "event"
    },
    {
      "anonymous": false,
      "inputs": [
        {
          "indexed": true,
          "internalType": "address",
          "name": "user",
          "type": "address"
        },
        {
          "indexed": false,
          "internalType": "bytes32",
          "name": "profileHash",
          "type": "bytes32"
        }
      ],
      "name": "UserProfileUpdated",
      "type": "event"
    },
    {
      "anonymous": false,
      "inputs": [
        {
          "indexed": true,
          "internalType": "address",
          "name": "user",
          "type": "address"
        },
        {
          "indexed": false,
          "internalType": "bytes32",
          "name": "profileHash",
          "type": "bytes32"
        }
      ],
      "name": "UserRegistered",
      "type": "event"
    },
    {
      "anonymous": false,
      "inputs": [
        {
          "indexed": true,
          "internalType": "address",
          "name": "user",
          "type": "address"
        },
        {
          "indexed": false,
          "internalType": "bool",
          "name": "active",
          "type": "bool"
        }
      ],
      "name": "UserStatusChanged",
      "type": "event"
    },
    {
      "inputs": [],
      "name": "RepublicSurpriseCount",
      "outputs": [
        {
          "internalType": "uint256",
          "name": "",
          "type": "uint256"
        }
      ],
      "stateMutability": "view",
      "type": "function"
    },
    {
      "inputs": [],
      "name": "admin",
      "outputs": [
        {
          "internalType": "address",
          "name": "",
          "type": "address"
        }
      ],
      "stateMutability": "view",
      "type": "function"
    },
    {
      "inputs": [
        {
          "internalType": "address",
          "name": "",
          "type": "address"
        }
      ],
      "name": "admins",
      "outputs": [
        {
          "internalType": "bool",
          "name": "",
          "type": "bool"
        }
      ],
      "stateMutability": "view",
      "type": "function"
    },
    {
      "inputs": [],
      "name": "companyName",
      "outputs": [
        {
          "internalType": "string",
          "name": "",
          "type": "string"
        }
      ],
      "stateMutability": "view",
      "type": "function"
    },
    {
      "inputs": [
        {
          "internalType": "address",
          "name": "",
          "type": "address"
        }
      ],
      "name": "deliveryMen",
      "outputs": [
        {
          "internalType": "bool",
          "name": "",
          "type": "bool"
        }
      ],
      "stateMutability": "view",
      "type": "function"
    },
    {
      "inputs": [],
      "name": "nextUserOrderId",
      "outputs": [
        {
          "internalType": "uint256",
          "name": "",
          "type": "uint256"
        }
      ],
      "stateMutability": "view",
      "type": "function"
    },
    {
      "inputs": [],
      "name": "orderCount",
      "outputs": [
        {
          "internalType": "uint256",
          "name": "",
          "type": "uint256"
        }
      ],
      "stateMutability": "view",
      "type": "function"
    },
    {
      "inputs": [
        {
          "internalType": "uint256",
          "name": "",
          "type": "uint256"
        }
      ],
      "name": "orderDeliveryMan",
      "outputs": [
        {
          "internalType": "address",
          "name": "",
          "type": "address"
        }
      ],
      "stateMutability": "view",
      "type": "function"
    },
    {
      "inputs": [
        {
          "internalType": "uint256",
          "name": "",
          "type": "uint256"
        }
      ],
      "name": "orders",
      "outputs": [
        {
          "internalType": "uint256",
          "name": "id",
          "type": "uint256"
        },
        {
          "internalType": "address",
          "name": "buyer",
          "type": "address"
        },
        {
          "internalType": "uint256",
          "name": "productId",
          "type": "uint256"
        },
        {
          "internalType": "bool",
          "name": "isSet",
          "type": "bool"
        },
        {
          "internalType": "uint256",
          "name": "qty",
          "type": "uint256"
        },
        {
          "internalType": "uint256",
          "name": "paid",
          "type": "uint256"
        },
        {
          "internalType": "enum RepublicSurpriseContract.OrderStatus",
          "name": "status",
          "type": "uint8"
        },
        {
          "internalType": "string",
          "name": "deliveryId",
          "type": "string"
        },
        {
          "internalType": "string",
          "name": "proofImage",
          "type": "string"
        }
      ],
      "stateMutability": "view",
      "type": "function"
    },
    {
      "inputs": [],
      "name": "owner",
      "outputs": [
        {
          "internalType": "address",
          "name": "",
          "type": "address"
        }
      ],
      "stateMutability": "view",
      "type": "function"
    },
    {
      "inputs": [
        {
          "internalType": "uint256",
          "name": "",
          "type": "uint256"
        }
      ],
      "name": "payments",
      "outputs": [
        {
          "internalType": "address",
          "name": "buyer",
          "type": "address"
        },
        {
          "internalType": "uint256",
          "name": "amountPaid",
          "type": "uint256"
        }
      ],
      "stateMutability": "view",
      "type": "function"
    },
    {
      "inputs": [],
      "name": "productCount",
      "outputs": [
        {
          "internalType": "uint256",
          "name": "",
          "type": "uint256"
        }
      ],
      "stateMutability": "view",
      "type": "function"
    },
    {
      "inputs": [
        {
          "internalType": "uint256",
          "name": "",
          "type": "uint256"
        }
      ],
      "name": "productInventoryStatus",
      "outputs": [
        {
          "internalType": "enum RepublicSurpriseContract.RepublicSurpriseStatus",
          "name": "",
          "type": "uint8"
        }
      ],
      "stateMutability": "view",
      "type": "function"
    },
    {
      "inputs": [
        {
          "internalType": "uint256",
          "name": "",
          "type": "uint256"
        }
      ],
      "name": "products",
      "outputs": [
        {
          "internalType": "uint256",
          "name": "id",
          "type": "uint256"
        },
        {
          "internalType": "string",
          "name": "name",
          "type": "string"
        },
        {
          "internalType": "string",
          "name": "description",
          "type": "string"
        },
        {
          "internalType": "uint256",
          "name": "priceWei",
          "type": "uint256"
        },
        {
          "internalType": "enum RepublicSurpriseContract.ProductStatus",
          "name": "status",
          "type": "uint8"
        },
        {
          "internalType": "bool",
          "name": "enableIndividual",
          "type": "bool"
        },
        {
          "internalType": "bool",
          "name": "enableSet",
          "type": "bool"
        },
        {
          "internalType": "uint256",
          "name": "individualPriceWei",
          "type": "uint256"
        },
        {
          "internalType": "uint256",
          "name": "individualStock",
          "type": "uint256"
        },
        {
          "internalType": "uint256",
          "name": "setPriceWei",
          "type": "uint256"
        },
        {
          "internalType": "uint256",
          "name": "setStock",
          "type": "uint256"
        },
        {
          "internalType": "uint256",
          "name": "setBoxes",
          "type": "uint256"
        }
      ],
      "stateMutability": "view",
      "type": "function"
    },
    {
      "inputs": [
        {
          "internalType": "address",
          "name": "",
          "type": "address"
        }
      ],
      "name": "roles",
      "outputs": [
        {
          "internalType": "enum RepublicSurpriseContract.Role",
          "name": "",
          "type": "uint8"
        }
      ],
      "stateMutability": "view",
      "type": "function"
    },
    {
      "inputs": [
        {
          "internalType": "uint256",
          "name": "",
          "type": "uint256"
        }
      ],
      "name": "userOrders",
      "outputs": [
        {
          "internalType": "uint256",
          "name": "id",
          "type": "uint256"
        },
        {
          "internalType": "address",
          "name": "buyer",
          "type": "address"
        },
        {
          "internalType": "uint256",
          "name": "totalAmount",
          "type": "uint256"
        },
        {
          "internalType": "enum RepublicSurpriseContract.UserOrderStatus",
          "name": "status",
          "type": "uint8"
        },
        {
          "internalType": "uint256",
          "name": "createdAt",
          "type": "uint256"
        }
      ],
      "stateMutability": "view",
      "type": "function"
    },
    {
      "inputs": [
        {
          "internalType": "address",
          "name": "",
          "type": "address"
        },
        {
          "internalType": "uint256",
          "name": "",
          "type": "uint256"
        }
      ],
      "name": "userOrdersByUser",
      "outputs": [
        {
          "internalType": "uint256",
          "name": "",
          "type": "uint256"
        }
      ],
      "stateMutability": "view",
      "type": "function"
    },
    {
      "inputs": [
        {
          "internalType": "address",
          "name": "",
          "type": "address"
        }
      ],
      "name": "users",
      "outputs": [
        {
          "internalType": "bool",
          "name": "exists",
          "type": "bool"
        },
        {
          "internalType": "bool",
          "name": "active",
          "type": "bool"
        },
        {
          "internalType": "bytes32",
          "name": "profileHash",
          "type": "bytes32"
        }
      ],
      "stateMutability": "view",
      "type": "function"
    },
    {
      "stateMutability": "payable",
      "type": "receive"
    },
    {
      "inputs": [
        {
          "internalType": "address",
          "name": "account",
          "type": "address"
        }
      ],
      "name": "addAdmin",
      "outputs": [],
      "stateMutability": "nonpayable",
      "type": "function"
    },
    {
      "inputs": [
        {
          "internalType": "address",
          "name": "account",
          "type": "address"
        }
      ],
      "name": "addDeliveryMan",
      "outputs": [],
      "stateMutability": "nonpayable",
      "type": "function"
    },
    {
      "inputs": [
        {
          "internalType": "address",
          "name": "account",
          "type": "address"
        }
      ],
      "name": "isAdmin",
      "outputs": [
        {
          "internalType": "bool",
          "name": "",
          "type": "bool"
        }
      ],
      "stateMutability": "view",
      "type": "function"
    },
    {
      "inputs": [
        {
          "internalType": "address",
          "name": "account",
          "type": "address"
        }
      ],
      "name": "isDelivery",
      "outputs": [
        {
          "internalType": "bool",
          "name": "",
          "type": "bool"
        }
      ],
      "stateMutability": "view",
      "type": "function"
    },
    {
      "inputs": [
        {
          "internalType": "address",
          "name": "account",
          "type": "address"
        },
        {
          "internalType": "enum RepublicSurpriseContract.Role",
          "name": "role",
          "type": "uint8"
        }
      ],
      "name": "assignRole",
      "outputs": [],
      "stateMutability": "nonpayable",
      "type": "function"
    },
    {
      "inputs": [
        {
          "internalType": "uint256",
          "name": "id",
          "type": "uint256"
        },
        {
          "internalType": "string",
          "name": "name",
          "type": "string"
        },
        {
          "internalType": "string",
          "name": "description",
          "type": "string"
        },
        {
          "internalType": "uint256",
          "name": "priceWei",
          "type": "uint256"
        },
        {
          "internalType": "bool",
          "name": "enableIndividual",
          "type": "bool"
        },
        {
          "internalType": "bool",
          "name": "enableSet",
          "type": "bool"
        },
        {
          "internalType": "uint256",
          "name": "individualPriceWei",
          "type": "uint256"
        },
        {
          "internalType": "uint256",
          "name": "individualStock",
          "type": "uint256"
        },
        {
          "internalType": "uint256",
          "name": "setPriceWei",
          "type": "uint256"
        },
        {
          "internalType": "uint256",
          "name": "setStock",
          "type": "uint256"
        },
        {
          "internalType": "uint256",
          "name": "setBoxes",
          "type": "uint256"
        }
      ],
      "name": "addProduct",
      "outputs": [],
      "stateMutability": "nonpayable",
      "type": "function"
    },
    {
      "inputs": [
        {
          "internalType": "uint256",
          "name": "id",
          "type": "uint256"
        }
      ],
      "name": "deactivateProduct",
      "outputs": [],
      "stateMutability": "nonpayable",
      "type": "function"
    },
    {
      "inputs": [
        {
          "internalType": "uint256",
          "name": "id",
          "type": "uint256"
        }
      ],
      "name": "reactivateProduct",
      "outputs": [],
      "stateMutability": "nonpayable",
      "type": "function"
    },
    {
      "inputs": [
        {
          "internalType": "address",
          "name": "user",
          "type": "address"
        },
        {
          "internalType": "bytes32",
          "name": "profileHash",
          "type": "bytes32"
        }
      ],
      "name": "registerUser",
      "outputs": [],
      "stateMutability": "nonpayable",
      "type": "function"
    },
    {
      "inputs": [
        {
          "internalType": "address",
          "name": "user",
          "type": "address"
        },
        {
          "internalType": "bytes32",
          "name": "profileHash",
          "type": "bytes32"
        }
      ],
      "name": "updateUserProfile",
      "outputs": [],
      "stateMutability": "nonpayable",
      "type": "function"
    },
    {
      "inputs": [
        {
          "internalType": "address",
          "name": "user",
          "type": "address"
        }
      ],
      "name": "deactivateUser",
      "outputs": [],
      "stateMutability": "nonpayable",
      "type": "function"
    },
    {
      "inputs": [
        {
          "internalType": "address",
          "name": "user",
          "type": "address"
        }
      ],
      "name": "reactivateUser",
      "outputs": [],
      "stateMutability": "nonpayable",
      "type": "function"
    },
    {
      "inputs": [
        {
          "internalType": "address",
          "name": "user",
          "type": "address"
        },
        {
          "internalType": "string",
          "name": "action",
          "type": "string"
        }
      ],
      "name": "logUserAudit",
      "outputs": [],
      "stateMutability": "nonpayable",
      "type": "function"
    },
    {
      "inputs": [
        {
          "internalType": "uint256",
          "name": "productId",
          "type": "uint256"
        },
        {
          "internalType": "uint256",
          "name": "quantity",
          "type": "uint256"
        }
      ],
      "name": "addToCart",
      "outputs": [],
      "stateMutability": "nonpayable",
      "type": "function"
    },
    {
      "inputs": [
        {
          "internalType": "uint256",
          "name": "productId",
          "type": "uint256"
        },
        {
          "internalType": "uint256",
          "name": "quantity",
          "type": "uint256"
        },
        {
          "internalType": "bool",
          "name": "isSet",
          "type": "bool"
        }
      ],
      "name": "addToCartV2",
      "outputs": [],
      "stateMutability": "nonpayable",
      "type": "function"
    },
    {
      "inputs": [
        {
          "internalType": "uint256",
          "name": "index",
          "type": "uint256"
        }
      ],
      "name": "removeFromCart",
      "outputs": [],
      "stateMutability": "nonpayable",
      "type": "function"
    },
    {
      "inputs": [],
      "name": "clearCart",
      "outputs": [],
      "stateMutability": "nonpayable",
      "type": "function"
    },
    {
      "inputs": [
        {
          "internalType": "address",
          "name": "buyer",
          "type": "address"
        }
      ],
      "name": "getCart",
      "outputs": [
        {
          "components": [
            {
              "internalType": "uint256",
              "name": "productId",
              "type": "uint256"
            },
            {
              "internalType": "uint256",
              "name": "quantity",
              "type": "uint256"
            },
            {
              "internalType": "bool",
              "name": "isSet",
              "type": "bool"
            }
          ],
          "internalType": "struct RepublicSurpriseContract.CartItem[]",
          "name": "",
          "type": "tuple[]"
        }
      ],
      "stateMutability": "view",
      "type": "function"
    },
    {
      "inputs": [
        {
          "internalType": "address",
          "name": "buyer",
          "type": "address"
        }
      ],
      "name": "getCartTotal",
      "outputs": [
        {
          "internalType": "uint256",
          "name": "total",
          "type": "uint256"
        }
      ],
      "stateMutability": "view",
      "type": "function"
    },
    {
      "inputs": [
        {
          "internalType": "uint256",
          "name": "productId",
          "type": "uint256"
        },
        {
          "internalType": "bool",
          "name": "isSet",
          "type": "bool"
        },
        {
          "internalType": "uint256",
          "name": "qty",
          "type": "uint256"
        }
      ],
      "name": "productPrice",
      "outputs": [
        {
          "internalType": "uint256",
          "name": "",
          "type": "uint256"
        }
      ],
      "stateMutability": "view",
      "type": "function"
    },
    {
      "inputs": [
        {
          "internalType": "uint256",
          "name": "productId",
          "type": "uint256"
        },
        {
          "internalType": "bool",
          "name": "isSet",
          "type": "bool"
        },
        {
          "internalType": "uint256",
          "name": "qty",
          "type": "uint256"
        },
        {
          "internalType": "string",
          "name": "deliveryId",
          "type": "string"
        }
      ],
      "name": "buy",
      "outputs": [
        {
          "internalType": "uint256",
          "name": "orderId",
          "type": "uint256"
        }
      ],
      "stateMutability": "payable",
      "type": "function"
    },
    {
      "inputs": [
        {
          "internalType": "uint256",
          "name": "orderId",
          "type": "uint256"
        },
        {
          "internalType": "string",
          "name": "deliveryId",
          "type": "string"
        }
      ],
      "name": "markOutForDelivery",
      "outputs": [],
      "stateMutability": "nonpayable",
      "type": "function"
    },
    {
      "inputs": [
        {
          "internalType": "uint256",
          "name": "orderId",
          "type": "uint256"
        },
        {
          "internalType": "string",
          "name": "proofImage",
          "type": "string"
        }
      ],
      "name": "submitProof",
      "outputs": [],
      "stateMutability": "nonpayable",
      "type": "function"
    },
    {
      "inputs": [
        {
          "internalType": "uint256",
          "name": "orderId",
          "type": "uint256"
        }
      ],
      "name": "confirmDelivery",
      "outputs": [],
      "stateMutability": "nonpayable",
      "type": "function"
    },
    {
      "inputs": [
        {
          "internalType": "uint256",
          "name": "orderId",
          "type": "uint256"
        },
        {
          "internalType": "address",
          "name": "deliveryMan",
          "type": "address"
        }
      ],
      "name": "assignDeliveryManToOrder",
      "outputs": [],
      "stateMutability": "nonpayable",
      "type": "function"
    },
    {
      "inputs": [
        {
          "internalType": "uint256",
          "name": "orderId",
          "type": "uint256"
        },
        {
          "internalType": "enum RepublicSurpriseContract.OrderStatus",
          "name": "status",
          "type": "uint8"
        },
        {
          "internalType": "string",
          "name": "note",
          "type": "string"
        },
        {
          "internalType": "string",
          "name": "proofImage",
          "type": "string"
        }
      ],
      "name": "deliveryAddStatus",
      "outputs": [],
      "stateMutability": "nonpayable",
      "type": "function"
    },
    {
      "inputs": [
        {
          "internalType": "uint256",
          "name": "orderId",
          "type": "uint256"
        },
        {
          "internalType": "enum RepublicSurpriseContract.OrderStatus",
          "name": "status",
          "type": "uint8"
        },
        {
          "internalType": "string",
          "name": "note",
          "type": "string"
        },
        {
          "internalType": "string",
          "name": "proofImage",
          "type": "string"
        }
      ],
      "name": "deliveryUpdateStatus",
      "outputs": [],
      "stateMutability": "nonpayable",
      "type": "function"
    },
    {
      "inputs": [
        {
          "internalType": "uint256",
          "name": "orderId",
          "type": "uint256"
        }
      ],
      "name": "getDeliveryHistory",
      "outputs": [
        {
          "components": [
            {
              "internalType": "enum RepublicSurpriseContract.OrderStatus",
              "name": "status",
              "type": "uint8"
            },
            {
              "internalType": "string",
              "name": "note",
              "type": "string"
            },
            {
              "internalType": "string",
              "name": "proofImage",
              "type": "string"
            },
            {
              "internalType": "uint256",
              "name": "timestamp",
              "type": "uint256"
            },
            {
              "internalType": "address",
              "name": "actor",
              "type": "address"
            }
          ],
          "internalType": "struct RepublicSurpriseContract.DeliveryLog[]",
          "name": "",
          "type": "tuple[]"
        }
      ],
      "stateMutability": "view",
      "type": "function"
    },
    {
      "inputs": [
        {
          "internalType": "uint256",
          "name": "orderId",
          "type": "uint256"
        }
      ],
      "name": "getOrderDetail",
      "outputs": [
        {
          "components": [
            {
              "internalType": "uint256",
              "name": "id",
              "type": "uint256"
            },
            {
              "internalType": "address",
              "name": "buyer",
              "type": "address"
            },
            {
              "internalType": "uint256",
              "name": "productId",
              "type": "uint256"
            },
            {
              "internalType": "bool",
              "name": "isSet",
              "type": "bool"
            },
            {
              "internalType": "uint256",
              "name": "qty",
              "type": "uint256"
            },
            {
              "internalType": "uint256",
              "name": "paid",
              "type": "uint256"
            },
            {
              "internalType": "enum RepublicSurpriseContract.OrderStatus",
              "name": "status",
              "type": "uint8"
            },
            {
              "internalType": "string",
              "name": "deliveryId",
              "type": "string"
            },
            {
              "internalType": "string",
              "name": "proofImage",
              "type": "string"
            }
          ],
          "internalType": "struct RepublicSurpriseContract.Order",
          "name": "",
          "type": "tuple"
        }
      ],
      "stateMutability": "view",
      "type": "function"
    },
    {
      "inputs": [
        {
          "internalType": "address",
          "name": "deliveryMan",
          "type": "address"
        }
      ],
      "name": "getOrdersForDelivery",
      "outputs": [
        {
          "internalType": "uint256[]",
          "name": "",
          "type": "uint256[]"
        }
      ],
      "stateMutability": "view",
      "type": "function"
    },
    {
      "inputs": [
        {
          "internalType": "uint256",
          "name": "totalAmount",
          "type": "uint256"
        }
      ],
      "name": "createUserOrder",
      "outputs": [],
      "stateMutability": "nonpayable",
      "type": "function"
    },
    {
      "inputs": [
        {
          "internalType": "uint256",
          "name": "id",
          "type": "uint256"
        },
        {
          "internalType": "enum RepublicSurpriseContract.UserOrderStatus",
          "name": "status",
          "type": "uint8"
        }
      ],
      "name": "updateUserOrderStatus",
      "outputs": [],
      "stateMutability": "nonpayable",
      "type": "function"
    },
    {
      "inputs": [
        {
          "internalType": "uint256",
          "name": "orderId",
          "type": "uint256"
        },
        {
          "internalType": "uint256",
          "name": "productId",
          "type": "uint256"
        }
      ],
      "name": "paywithMetamask",
      "outputs": [],
      "stateMutability": "payable",
      "type": "function"
    },
    {
      "inputs": [
        {
          "internalType": "address payable",
          "name": "to",
          "type": "address"
        },
        {
          "internalType": "uint256",
          "name": "amount",
          "type": "uint256"
        }
      ],
      "name": "withdraw",
      "outputs": [],
      "stateMutability": "nonpayable",
      "type": "function"
    }
  ],
  "bytecode": "0x6080806040523462000128576005546001908181811c911680156200011d575b60208210146200010757601f8111620000d4575b50602c7f52657075626c69632053757270726973652053686f70000000000000000000000160055560018060a01b0319338160005416176000553390825416178155336000526002602052604060002060ff19918282541617905560046020526004604060002091825416179055337f44d6d25963f097ad14f29f06854a01f575648a1ef82f30e562ccd3889717e339600080a2614f0190816200012e8239f35b600560005281601f6020600020920160051c8201915b828110620000fa57505062000033565b60008155018290620000ea565b634e487b7160e01b600052602260045260246000fd5b90607f16906200001f565b600080fdfe6080604052600436101561001b575b361561001957600080fd5b005b60003560e01c8063018bdf891461228a578063057a29ac146140e25780630ace36eb146140355780631a47767b14613f45578063209d2f6a1461372757806322da71a1146135a35780632453ffa81461358557806324d7806c14612d9b5780632af00510146130e05780632ee092c1146118a65780633469a4e314612fc65780633ab9bbb614612e0e5780633e311a4f14612dda578063429b62e514612d9b5780634477a4af14612caf57806352e33fb514612bc057806355fd0afa14612b55578063574fde9714612abf578063630a195b146129685780636cdec642146128595780636e0e5332146127cc57806370480275146126f957806374728d9d146124d35780637acc0b20146123d757806381a29457146122e357806387d81789146122a75780638c432b181461228a5780638cfe8f4914611b355780638da5cb5b14611b0c5780639937464214611aca5780639a011de914611a16578063a85c38ef1461193c578063a87430ba146118e5578063b0ba40a9146118a6578063b90e8c0e1461186e578063c8ebb53814611816578063ca29610e146116c4578063d2b88d6f14611539578063d7e0b6e314611371578063d99503ec14611353578063e0f6ef8714611335578063e23803ca14610dd9578063e4c79a4a14610c46578063ec96963614610b43578063edef139f14610aa4578063f3fef3a3146109f6578063f50b2259146109d8578063f5ec2eed146108f2578063f851a440146108c9578063f95e1abb146106c7578063fd77e5de146106375763fd84cb970361000e573461063257602036600319011261063257600860043533600052600260205261028c60ff604060002054166144ac565b80600052600d60205260406000206102a681541515614adc565b60068101805490600460ff8316926102bd84614253565b6102ca6003809514614b5c565b60ff191617905582600080516020614e2c833981519152602060405160048152a2610331604051926102fb8461443b565b6012845271111153125591549657d0d3d391925493515160721b602085015261032a604051809781930161431c565b0385614456565b8260005260106020526040600020906040519161034d836143ce565b600483526020830191848352866040850152426060850152336080850152815491600160401b831015610580576001830180825583101561061c576000526020600020926103aa855161039f81614253565b600585028601614803565b518051906001600160401b0382116105805781906103e2826103d46001600589028a0101546142e2565b6001600589028a010161452b565b602090601f83116001146105a157600092610596575b50508160011b9160001990841b1c191617600160058402850101555b60026005830284010160408501518051906001600160401b038211610580576104478261044185546142e2565b8561452b565b602090601f83116001146104fd5793600080516020614e4c833981519152989693836005946104de9a98946004986000926104f2575b50508160011b9160001990851b1c19161790555b6060860151908383028501015502010190608060018060a01b03910151166001600160601b0360a01b8254161790556104ed6040519283926004845260606020850152606084019061425d565b8281036040840152339661425d565b0390a3005b01519050388061047d565b90601f198316918460005260206000209260005b8181106105685750846104de9a989460049894600080516020614e4c8339815191529d9b989460059860019510610550575b505050811b019055610491565b015160001983871b60f8161c19169055388080610543565b92936020600181928786015181550195019301610511565b634e487b7160e01b600052604160045260246000fd5b0151905038806103f8565b92506001600586028701016000526020600020906000935b601f1984168510610601576001945083601f198116106105e9575b505050811b0160016005840285010155610414565b015160001983861b60f8161c191690553880806105d4565b818101518355602094850194600190930192909101906105b9565b634e487b7160e01b600052603260045260246000fd5b600080fd5b346106325760203660031901126106325760043533600052600260205261066560ff604060002054166144ac565b80600052600860205261067e604060002054151561462d565b8060005260086020526004604060002001600160ff198254161790557fb87b530dbf7e96bcdf03e8c51bea4a9900239ee28d9327ac38c8ef2f0bb96fe9602060405160018152a2005b34610632576106d53661429d565b919033600052602090600282526106f360ff604060002054166144ac565b82600052600d825260406000209361070d85541515614adc565b6006850180549560ff87169661072288614253565b60018098036108995760ff191660021782556007016001600160401b038311610580576107598361075383546142e2565b8361452b565b600096601f841160011461081c576107b560ff600080516020614e0c833981519152948694858b988b966100199e600093610811575b501b906000198860031b1c19161790555b5416956040519360608552606085019161457f565b6107be86614253565b8582840152600083820391826040860152520190a26f4f55545f464f525f44454c495645525960801b604051926107f48461443b565b601084528301526040519261080884614420565b6000845261480d565b8c013592508f61078f565b601f1984169782600052866000209860005b8181106108845750600080516020614e0c83398151915294869489946100199c6107b5958d9a60ff961061086a575b505086811b0190556107a0565b8b013560001960038a901b60f8161c191690558d8061085d565b878301358b559983019991880191880161082e565b60405162461bcd60e51b81526004810187905260086024820152671b9bdd081c185a5960c21b6044820152606490fd5b34610632576000366003190112610632576001546040516001600160a01b039091168152602090f35b34610632576000366003190112610632576040516000600554610914816142e2565b808452906001908181169081156109b15750600114610956575b6109528461093e81860382614456565b60405191829160208352602083019061425d565b0390f35b6005600090815292507f036b6384b5eca791c62761152d0c79bb0604c104a5fb6f4eb0703f3154bb3db05b82841061099957505050810160200161093e8261092e565b80546020858701810191909152909301928101610981565b60ff191660208087019190915292151560051b8501909201925061093e915083905061092e565b34610632576000366003190112610632576020600754604051908152f35b34610632576040366003190112610632576004356001600160a01b038116908190036106325760243590336000526002602052610a3a60ff604060002054166144ac565b478211610a6d5760008080938193828215610a64575bf115610a5857005b6040513d6000823e3d90fd5b506108fc610a50565b60405162461bcd60e51b815260206004820152600f60248201526e657863656564732062616c616e636560881b6044820152606490fd5b346106325760403660031901126106325760043560243560068110156106325760207f85f98c7512cd5700f6bd1982118fe6082e8c565428b4c8799b91bcbf7832e9c1913360005260028252610b0160ff604060002054166144ac565b8360005260118252610b318160036040600020610b2b60018060a01b036001830154161515614adc565b01614803565b60405190610b3e81614253565b8152a2005b34610632576040366003190112610632576004356024356001600160a01b038116908190036106325733600052602060028152610b8760ff604060002054166144ac565b816000526003815260ff6040600020541615610c1357600f9083600052600d8152610bb86040600020541515614adc565b83600052600e81526040600020836001600160601b0360a01b8254161790558260005252610bea826040600020614b96565b33917ff457389f82700849408bf8a2854d1bb1e77de36c18a584bb48edce6cb461a8f4600080a4005b6064906040519062461bcd60e51b82526004820152600c60248201526b6e6f742064656c697665727960a01b6044820152fd5b346106325760208060031936011261063257604051610c64816143b2565b60008152600082820152600060408201526000606082015260006080820152600060a0820152600060c0820152606060e0820152606061010080920152600435600052600d82526109526008604060002092610dc66040518095610cc7826143b2565b8054825260018060a01b03806001830154169089840191825260028301546040850190815260ff600385015416906060860191151582526004850154926080870193845260058601549460a08801958652610d6d60ff6006890154169760c08a0198610d3281614253565b895260e06040519a610d528c610d4b816007870161431c565b038d614456565b01998a52610d66604051809e81930161431c565b038c614456565b898d019a8b526040518e819f9e829f835251910152511660408c01525160608b015251151560808a01525160a08901525160c088015251610dad81614253565b60e087015251610120809387015261014086019061425d565b915190601f19858403019085015261425d565b610de2366142cc565b9034156113065780600052600d6020526040600020546112d257816000526008602052610e1560406000205415156146aa565b816000526008602052604060002060ff6004820154610e3f828216610e3981614477565b156146ea565b60081c161561129757600681018054916001831061125d576005810154908115611251575b50610e708115156147c7565b34036112195760001982019182116112035755610e8c826145a0565b604051604081018181106001600160401b0382111761058057604052338152600160208201348152836000526014602052604060002092828060a01b039051166001600160601b0360a01b8454161783555191015560405191610eee836143b2565b81835233602084015280604084015260006060840152600160808401523460a0840152600160c0840152604051610f2481614420565b6000815260e0840152604051610f3981614420565b6000815261010084015281600052600d6020526040600020835181556001810160018060a01b036020860151166001600160601b0360a01b82541617905560408401516002820155610fa060608501511515600383019060ff801983541691151516179055565b6080840151600482015560a08401516005820155610fce60c0850151610fc581614253565b60068301614803565b6007810160e08501518051906001600160401b03821161058057610ff68261044185546142e2565b602090601f8311600114611194579180600894926101009694600092611189575b50508160011b916000199060031b1c19161790555b019301519283516001600160401b038111610580576110558161104f84546142e2565b8461452b565b6020601f821160011461110e57908060a0949392600080516020614eac8339815191529697600092611103575b50508160011b916000199060031b1c19161790555b600c5484116110fa575b7f4f2d18324ee95128de091ed2adc501295479000ce4c2cec607aeb1b67e189e2f6060604051868152336020820152346040820152a16040519081523360208201526001604082015260006060820152346080820152a2005b83600c556110a1565b015190508780611082565b601f198216958360005260206000209660005b818110611171575096600192849260a0979695600080516020614eac833981519152999a10611158575b505050811b019055611097565b015160001960f88460031b161c1916905587808061114b565b83830151895560019098019760209384019301611121565b015190508980611017565b90601f198316918460005260206000209260005b8181106111eb5750926001928592610100989660089896106111d2575b505050811b01905561102c565b015160001960f88460031b161c191690558980806111c5565b929360206001819287860151815501950193016111a8565b634e487b7160e01b600052601160045260246000fd5b60405162461bcd60e51b815260206004820152601060248201526f1a5b98dbdc9c9958dd08185b5bdd5b9d60821b6044820152606490fd5b60039150015485610e64565b60405162461bcd60e51b8152602060048201526012602482015271696e73756666696369656e742073746f636b60701b6044820152606490fd5b60405162461bcd60e51b81526020600482015260136024820152721a5b991a5d9a591d585b08191a5cd8589b1959606a1b6044820152606490fd5b60405162461bcd60e51b815260206004820152600c60248201526b6f726465722065786973747360a01b6044820152606490fd5b60405162461bcd60e51b81526020600482015260076024820152660706179203e20360cc1b6044820152606490fd5b34610632576000366003190112610632576020600654604051908152f35b34610632576000366003190112610632576020601354604051908152f35b346106325760403660031901126106325761138a61422e565b60243533600052602091600283526113a960ff604060002054166144ac565b6001600160a01b03166000818152600a8452604090205490919060ff1661150657604051906113d7826143e9565b6001918281528285820181815261142c604084019185835287600052600a8952611415604060002095511515869060ff801983541691151516179055565b51845461ff00191690151560081b61ff0016178455565b519101556004845260ff6040600020541660058110156114f057156114ba575b827f4c5d15f5779ae1ecd7d55bd3283d898e29c35743d172bd7b83a16e17bc0afe2a85604051848152a2604051936080855260086080860152672922a3a4a9aa22a960c11b60a08601528401526040830152426060830152600080516020614e8c83398151915260c03393a3005b826000526004845260406000208260ff1982541617905560405182815283600080516020614e6c833981519152863393a361144c565b634e487b7160e01b600052602160045260246000fd5b60405162461bcd60e51b815260048101849052600b60248201526a557365722065786973747360a81b6044820152606490fd5b34610632576020806003193601126106325761155361422e565b6001600160a01b03166000908152600b825260408120805482915b81831061158057505050604051908152f35b90919261158d8483614765565b505460005261169860088087526040600020604051916115ac83614404565b81548352604051916001926115ce816115c78187860161431c565b0382614456565b8a850152604051936002946115e9816115c78189870161431c565b60408201526003820154946060820195865260048301549160ff838180951661161181614477565b60808401528181881c16151560a084015260101c16151560c0820152610160600960058601549560e084019687526006810154610100850152600781015497610120850198895281015461014085015201549101526116708b8a614765565b50015416156116bb575051915b82156116b2575b5061168f8786614765565b5001549061478e565b8101809111611203576116ab90936147b8565b919061156e565b51915088611684565b9050519161167d565b346106325760203660031901126106325760043533600052600b60205260406000208054808310156117e5576116fa8383614765565b50549260001991808301908111611203576117186117209185614765565b509184614765565b611785578181036117b1575b50508154801561179b5701906117428282614765565b6117855760028160008093558260018201550155556040519081527f1ff6fdafb329bc793bba0305f4e4b334bab99f154c261e62c190437c084ec55060203392a2005b634e487b7160e01b600052600060045260246000fd5b634e487b7160e01b600052603160045260246000fd5b600260ff81846117de955485556001810154600186015501541691019060ff801983541691151516179055565b838061172c565b60405162461bcd60e51b81526020600482015260096024820152680c4c2c840d2dcc8caf60bb1b6044820152606490fd5b346106325760403660031901126106325761182f61422e565b6001600160a01b03166000908152601260205260409020805460243591908210156106325760209161186091614494565b90546040519160031b1c8152f35b34610632576020366003190112610632576004356000526009602052602060ff60406000205416604051906118a281614477565b8152f35b34610632576020366003190112610632576001600160a01b036118c761422e565b166000526003602052602060ff604060002054166040519015158152f35b34610632576020366003190112610632576001600160a01b0361190661422e565b16600052600a602052606060406000206001815491015460ff604051928181161515845260081c16151560208301526040820152f35b3461063257602036600319011261063257600435600052600d602052604060002080546109526008611a0760018060a01b0360018601541694600281015460ff600383015416600483015460058401549160ff600686015416936119c5604051966119b5886119ae816007850161431c565b0389614456565b6119ae604051809b81930161431c565b6040519a8b9a8b5260208b015260408a015215156060890152608088015260a08701526119f181614253565b60c08601526101208060e087015285019061425d565b9083820361010085015261425d565b3461063257602080600319360112610632576001600160a01b03611a3861422e565b16600052600f8152604060002060405190818382549182815201908192600052846000209060005b86828210611ab6578686611a7682880383614456565b604051928392818401908285525180915260408401929160005b828110611a9f57505050500390f35b835185528695509381019392810192600101611a90565b835485529093019260019283019201611a60565b34610632576020366003190112610632576001600160a01b03611aeb61422e565b16600052600460205261095260ff6040600020541660405191829182614481565b34610632576000366003190112610632576000546040516001600160a01b039091168152602090f35b346106325761016036600319011261063257602480356001600160401b03811161063257611b679036906004016141a6565b916044356001600160401b03811161063257611b879036906004016141a6565b906084351515608435036106325760a435151560a4350361063257336000526002602052611bbc60ff604060002054166144ac565b6004356000526008602052604060002054612255578415612221576084358015612218575b156121ca57608435156121335760c435156120ef575b60a43515612020576101043515611fe7576101443515611fae57611c3f905b60405192611c2384614404565b6004358452611c333688886144e5565b602085015236916144e5565b6040820152606435606082015260006080820152608435151560a082015260a435151560c082015260c43560e082015260e43561010082015261010435610120820152610124356101408201526101443561016082015260043560005260086020526040600020908051825560208101518051906001600160401b038211611f1c578190611cdd82611cd460018801546142e2565b6001880161452b565b602090601f8311600114611f3c57600092611f31575b50508160011b916000199060031b1c19161760018301555b60408101518051906001600160401b038211611f1c57611d3b82611d3260028701546142e2565b6002870161452b565b602090601f8311600114611ea65791806009949261016094600092611e9b575b50508160011b916000199060031b1c19161760028501555b60608101516003850155600484016080820151611d8f81614477565b611d9881614477565b815460a084015161ff0090151560081b1660ff9290921661ffff199091161717815560c0820151151562ff000082549160101b169062ff0000191617905560e0810151600585015561010081015160068501556101208101516007850155610140810151600885015501519101556006549060018201809211611e8757507f53fbf7003761d1e771c90f002627a20cf3ed176479a23d51aa9cc2be35a856b59181611e6092600655600755611e4e6004356145a0565b6040519360808552608085019161457f565b9160643560208201526084351515604082015260a4351515606082015280600435930390a2005b634e487b7160e01b60009081526011600452fd5b015190508980611d5b565b906002850160005260206000209160005b601f1985168110611f04575092600994926001926101609583601f19811610611eeb575b505050811b016002850155611d73565b015160001960f88460031b161c19169055898080611edb565b91926020600181928685015181550194019201611eb7565b84634e487b7160e01b60005260416004526000fd5b015190508780611cf3565b9250600185016000526020600020906000935b601f1984168510611f93576001945083601f19811610611f7a575b505050811b016001830155611d0b565b015160001960f88460031b161c19169055878080611f6a565b81810151835560209485019460019093019290910190611f4f565b60405162461bcd60e51b8152602060048201526012818501527114d95d08189bde195cc81c995c5d5a5c995960721b6044820152606490fd5b60405162461bcd60e51b8152602060048201526012818501527114d95d081c1c9a58d9481c995c5d5a5c995960721b6044820152606490fd5b610104356120b5576101243561207b576101443561204157611c3f90611c16565b60405162461bcd60e51b81526020600482015260138185015272053657420626f786573206d757374206265203606c1b6044820152606490fd5b60405162461bcd60e51b8152602060048201526013818501527205365742073746f636b206d757374206265203606c1b6044820152606490fd5b60405162461bcd60e51b815260206004820152601381850152720536574207072696365206d757374206265203606c1b6044820152606490fd5b60405162461bcd60e51b8152602060048201526019818501527f496e646976696475616c207072696365207265717569726564000000000000006044820152606490fd5b60c4356121865760e43515611bf75760405162461bcd60e51b815260206004820152601a818501527f496e646976696475616c2073746f636b206d75737420626520300000000000006044820152606490fd5b60405162461bcd60e51b815260206004820152601a818501527f496e646976696475616c207072696365206d75737420626520300000000000006044820152606490fd5b60405162461bcd60e51b8152602060048201526021818501527f53656c656374206174206c65617374206f6e65207075726368617365207479706044820152606560f81b6064820152608490fd5b5060a435611be1565b60405162461bcd60e51b815260206004820152600d818501526c1b985b59481c995c5d5a5c9959609a1b6044820152606490fd5b60405162461bcd60e51b815260206004820152600e818501526d50726f647563742065786973747360901b6044820152606490fd5b346106325761001961229b366141d3565b94939093929192614bcb565b346106325760203660031901126106325760043560005260146020526040806000206001808060a01b0382541691015482519182526020820152f35b3461063257602080600319360112610632576122fd61422e565b336000526002825261231660ff604060002054166144ac565b6001600160a01b03166000818152600a835260409020546123399060ff1661466d565b80600052600a8252604060002061010061ff0019825416179055807fac6a98145b54adc0bf4a88140a58aa33ca5ddf35ac39fc3998947220aa1b230d8360405160018152a280600052600a82526001604060002001546040519260808452600a6080850152695245414354495641544560b01b60a085015283015260016040830152426060830152600080516020614e8c83398151915260c03393a3005b3461063257602036600319011261063257600435600052600860205260406000208054604051916124168361240f816001850161431c565b0384614456565b60405161242a816115c7816002860161431c565b600382015491600481015460ff811690600583015460ff60068501549260078601549461248660096008890154980154986124786040519d8e9d8e528d61018090816020820152019061425d565b8c810360408e01529061425d565b9860608b015261249581614477565b60808a0152818160081c16151560a08a015260101c16151560c088015260e08701526101008601526101208501526101408401526101608301520390f35b346106325760603660031901126106325760043560243560443590811515918281036106325781156126bd57836000526126076020916008835261251d60406000205415156146aa565b856000526008835260406000206040519161253783614404565b8154835260405161254f816115c7816001870161431c565b85840152604051612567816115c7816002870161431c565b6040840152600382015460608401526125f960048301549360ff85169061258d82614477565b816080820152610160600960a083019660ff8960081c161515885260ff60c085019960101c1615158952600581015460e085015260068101546101008501526007810154610120850152600881015461014085015201549101526125f081614477565b610e3981614477565b156126b35750511515614729565b33600052600b8152604060002060405190612621826143e9565b8582528282019184835260408101918683528054600160401b8110156105805761265091600182018155614765565b9290926117855761267d9360029251845551600184015551151591019060ff801983541691151516179055565b60405193845283015260408201527fb4f667de1c9171fadc8419424ac5c182e3bae852b8f22c286be2682fdf841e2d60603392a2005b9050511515614729565b60405162461bcd60e51b815260206004820152601460248201527307175616e74697479206d757374206265203e20360641b6044820152606490fd5b346106325760203660031901126106325761271261422e565b6000546001600160a01b0391908216330361279a5716806000526002602052604060002060ff19906001828254161790556004602052600360406000209182541617905560405190807f44d6d25963f097ad14f29f06854a01f575648a1ef82f30e562ccd3889717e339600080a260038252600080516020614e6c83398151915260203393a3005b60405162461bcd60e51b815260206004820152600a6024820152696f776e6572206f6e6c7960b01b6044820152606490fd5b34610632576020366003190112610632576004353360005260026020526127fa60ff604060002054166144ac565b806000526008602052612813604060002054151561462d565b806000526008602052600460406000200160ff1981541690557fb87b530dbf7e96bcdf03e8c51bea4a9900239ee28d9327ac38c8ef2f0bb96fe9602060405160008152a2005b34610632576060366003190112610632576020612959612877614244565b600435600052600883526040600020906040519061289482614404565b825482526040516128ac816115c7816001880161431c565b858301526040516128c4816115c7816002880161431c565b60408301526003830154606083015260ff60048401548181166128e681614477565b6080850152818160081c16151560a085015260101c16151560c08301526005830154918260e082015260068401546101008201526101606009600786015495866101208501526008810154610140850152015491015260001461296157505b6129508115156147c7565b6044359061478e565b604051908152f35b9050612945565b346106325760403660031901126106325761298161422e565b6024359060058210156106325733600052602090600282526129aa60ff604060002054166144ac565b6001600160a01b0316908115612a8d5760049060038403612a24578260005260028152604060002060ff19906001828254161790556003825260406000209081541690555b8260005252604060002060ff1981541660ff8416179055600080516020614e6c833981519152604051806104ed339582614481565b60028403612a5a578260005260038152604060002060ff19906001828254161790556002825260406000209081541690556129ef565b600184036129ef578260005260028152604060002060ff19908181541690556003825260406000209081541690556129ef565b6064906040519062461bcd60e51b82526004820152600b60248201526a189859081858d8dbdd5b9d60aa1b6044820152fd5b346106325760003660031901126106325733600052600b602052604060002080546000825580612b12575b337fc65a75b7a288595a934865dd0ab8eb43ac6e4f41fa21ad52cae2f31b3a68bca2600080a2005b6003918183029183830403611203576000526020600020908101905b818110612b3b5750612aea565b806000849255600060018201556000600282015501612b2e565b3461063257602036600319011261063257600435600052601160205260a06040600020805490600180841b03600182015416906002810154600460ff6003840154169201549260405194855260208501526040840152612bb481614253565b60608301526080820152f35b3461063257602080600319360112610632576001600160a01b03612be261422e565b16600052600b81526040600020908154612bfb816147a1565b90612c096040519283614456565b8082528282018094600052836000206000915b838310612c745760408051878152865181890181905289928201908960005b828110612c485784840385f35b855180518552808301518584015260409081015115159085015294810194606090930192600101612c3b565b600386600192604051612c86816143e9565b85548152848601548382015260ff60028701541615156040820152815201920192019190612c1c565b34610632576020366003190112610632576004356013546001810180821161120357601355604051612ce0816143ce565b818152600460208201338152612d52604084018681526060850190600082526080860193428552876000526011602052604060002096518755600187019060018060a01b039051166001600160601b0360a01b82541617905551600286015551612d4981614253565b60038501614803565b51910155336000526012602052612d6d816040600020614b96565b6040519182527f2620fb2e77d17c14df0a56f96a70b857c65e3f9bd0281ac439c2c9ae4ec07b3460203393a3005b34610632576020366003190112610632576001600160a01b03612dbc61422e565b166000526002602052602060ff604060002054166040519015158152f35b3461063257602036600319011261063257600435600052600e602052602060018060a01b0360406000205416604051908152f35b3461063257612e1c366142cc565b80156126bd5781600052602060088152612e3c60406000205415156146aa565b8260005260088152612f176040600020612f0f60405191612e5c83614404565b80548352604051612e74816115c7816001860161431c565b85840152604051612e8c816115c7816002860161431c565b604084015260038101546060840152600481015492610160600960ff861693612eb485614477565b84608085015260ff60a0850197818160081c161515895260101c16151560c0850152600581015460e085015260068101546101008501526007810154610120850152600881015461014085015201549101526125f081614477565b511515614729565b33600052600b8152604060002060405190612f31826143e9565b848252828201918483526040810191600083528054600160401b81101561058057612f6191600182018155614765565b92909261178557612f8e9360029251845551600184015551151591019060ff801983541691151516179055565b604051928352820152600060408201527fb4f667de1c9171fadc8419424ac5c182e3bae852b8f22c286be2682fdf841e2d60603392a2005b3461063257604036600319011261063257612fdf61422e565b602435906001600160a01b0316338190036130af5780600052600a60205261300e60ff6040600020541661466d565b80600052600a60205281600160406000200155807f331a1f487a28b8376d30fb1eb6f8641f7e4f82871e3c61021acec73dc1c856906020604051858152a280600052600a60205260ff60406000205460081c166040519260808452600e60808501526d5550444154455f50524f46494c4560901b60a0850152602084015215156040830152426060830152600080516020614e8c83398151915260c03393a3005b60405162461bcd60e51b815260206004820152600960248201526875736572206f6e6c7960b81b6044820152606490fd5b34610632576130ee3661429d565b919033600052600360205260ff604060002054168015613571575b61311290614b1a565b81600052600d60205260406000209061312d82541515614adc565b600682019161314b600260ff85541661314581614253565b14614b5c565b60088101906001600160401b038611610580578161316e876107538895546142e2565b866000601f82116001146134e957956131d792600080516020614e0c8339815191529492613220986000916134de575b508a60011b906000198c60031b1c19161790555b600360ff198254161790556131ed60405192839260608452600760608501910161431c565b600360208401528281036040840152898761457f565b0390a2604051936131fd8561443b565b600f85526e141493d3d197d4d550935255151151608a1b602086015236916144e5565b9181600052601060205260406000206040519061323c826143ce565b600382526020820190838252856040840152426060840152336080840152805490600160401b821015610580576001820180825582101561061c57600052602060002091613299845161328e81614253565b600584028501614803565b518051906001600160401b0382116105805781906132d1826132c3600160058802890101546142e2565b60016005880289010161452b565b602090601f831160011461346257600092613457575b50508160011b916000199060031b1c191617600160058302840101555b60026005820283010160408401518051906001600160401b038211610580576133318261044185546142e2565b602090601f83116001146133d4579360049383600080516020614e4c8339815191529997946005946104de9a986000926133c9575b50508160011b916000199060031b1c19161790555b606085015160038383028501015502010190608060018060a01b03910151166001600160601b0360a01b8254161790556104ed6040519283926003845260606020850152606084019061425d565b015190508d80613366565b90601f198316918460005260206000209260005b81811061343f5750846005946104de9a989460049894600080516020614e4c8339815191529d9b9860019510613426575b505050811b01905561337b565b015160001960f88460031b161c191690558d8080613419565b929360206001819287860151815501950193016133e8565b0151905088806132e7565b92506001600585028601016000526020600020906000935b601f19841685106134c3576001945083601f198116106134aa575b505050811b0160016005830284010155613304565b015160001960f88460031b161c19169055888080613495565b8181015183556020948501946001909301929091019061347a565b90508701358b61319e565b95919050601f198816816000528860206000209160005b81811061355357509161322098600080516020614e0c8339815191529694926131d7969410613539575b505060018a811b0190556131b2565b88013560001960038d901b60f8161c191690558a8061352a565b8989013584556020998a01998b98506001909401938c935001613500565b50600260205260406000205460ff16613109565b34610632576000366003190112610632576020600c54604051908152f35b346106325760208060031936011261063257600435600052601081526040600020908154916135d1836147a1565b926135df6040519485614456565b8084528284018092600052836000206000915b8383106136a65750505050604051918083019381845251809452604083019360408160051b85010192916000955b82871061362d5785850386f35b909192938280600192603f19898203018552875190815161364d81614253565b815261367a6136688484015160a0808786015284019061425d565b6040840151838203604085015261425d565b916060808201519083015260809081878060a01b03910151169101529601920196019592919092613620565b6005866001926040999899516136bb816143ce565b60ff8654166136c981614253565b81526040516136de816115c781898b0161431c565b838201526040516136f6816115c78160028b0161431c565b604082015260038601546060820152848060a01b0360048701541660808201528152019201920191909594956135f2565b60803660031901126106325761373b614244565b6064356001600160401b0381116106325761375a9036906004016141a6565b9160443515613f16576004356000526008602052604060002061377f815415156146aa565b6137a760ff6004830154613798828216610e3981614477565b8415613f0d5760101c16614729565b8115613ec157604435600882015410613e83575b8115613e76576137d460078201546129508115156147c7565b3403613e41578115613e2a576008016137f06044358254614781565b90555b6137fe6004356145a0565b61385361380c600c546147b8565b9283600c556040519461381e866143b2565b8486523360208701526004356040870152831515606087015260443560808701523460a0870152600160c087015236916144e5565b60e084015260405161386481614420565b6000815261010084015281600052600d602052604060002092805184556001840160018060a01b036020830151166001600160601b0360a01b825416179055604081015160028501556138cc60608201511515600386019060ff801983541691151516179055565b6080810151600485015560a081015160058501556138fa60c08201516138f181614253565b60068601614803565b60e08101518051906001600160401b0382116105805761392a8261392160078901546142e2565b6007890161452b565b602090601f8311600114613db65761010093929160009183613dab575b50508160011b916000199060031b1c19161760078601555b01519283516001600160401b0381116105805761398c8161398360088501546142e2565b6008850161452b565b6020601f8211600114613d285791600882600080516020614eac833981519152959360a0958899600092613d1d575b50508160011b916000199060031b1c1916179101555b604051906004358252336020830152604435604083015215156060820152346080820152a260405190613a038261443b565b600a82526913d491115497d410525160b21b6020830152604051613a2681614420565b6000815281600052601060205260406000209260405190613a46826143ce565b60018252806020830152826040830152426060830152336080830152845494600160401b861015610580576001860180825586101561061c57600052602060002091613aa18151613a9681614253565b600588028501614803565b60208101518051906001600160401b038211610580578190613add82613acf600160058d028a0101546142e2565b600160058d028a010161452b565b602090601f8311600114613ca157600092613c96575b50508160011b916000199060031b1c191617600160058802850101555b6040810151928351966001600160401b03881161058057878795613b5060209a613b42600260058702880101546142e2565b60026005870288010161452b565b8990601f8311600114613c02576104de959383600494600080516020614e4c833981519152999794600594600092613bf7575b50508160011b916000199060031b1c1916176002838302850101555b606085015160038383028501015502010190608060018060a01b03910151166001600160601b0360a01b825416179055613bec6040519283926001845260608a850152606084019061425d565b0390a3604051908152f35b015190508e80613b83565b906002600585028601016000528a6000209160005b601f1985168110613c7c575093600184600080516020614e4c8339815191529997946005946104de9a98600498601f19811610613c63575b505050811b01600283830285010155613b9f565b015160001960f88460031b161c191690558e8080613c4f565b8183015184558b9950600190930192918c01918c01613c17565b015190508880613af3565b9250600160058a028701016000526020600020906000935b601f1984168510613d02576001945083601f19811610613ce9575b505050811b0160016005880285010155613b10565b015160001960f88460031b161c19169055888080613cd4565b81810151835560209485019460019093019290910190613cb9565b0151905089806139bb565b6008830160005260206000209560005b601f1984168110613d935750600183879860a09694600894600080516020614eac8339815191529997601f19811610613d7a575b505050811b019101556139d1565b015160001960f88460031b161c19169055898080613d6c565b82820151885560019097019660209283019201613d38565b015190508780613947565b906007870160005260206000209160005b601f1985168110613e1257509183916001936101009695601f19811610613df9575b505050811b01600786015561395f565b015160001960f88460031b161c19169055878080613de9565b91926020600181928685015181550194019201613dc7565b600601613e3a6044358254614781565b90556137f3565b60405162461bcd60e51b815260206004820152600d60248201526c1ddc9bdb99c81c185e5b595b9d609a1b6044820152606490fd5b6137d46005820154612945565b60405162461bcd60e51b8152602060048201526016602482015275696e73756666696369656e74207365742073746f636b60501b6044820152606490fd5b604435600682015410156137bb5760405162461bcd60e51b8152602060048201526016602482015275696e73756666696369656e7420626f782073746f636b60501b6044820152606490fd5b60081c16614729565b60405162461bcd60e51b81526020600482015260076024820152660717479203e20360cc1b6044820152606490fd5b346106325760208060031936011261063257613f5f61422e565b3360005260028252613f7860ff604060002054166144ac565b6001600160a01b03166000818152600a83526040902054613f9b9060ff1661466d565b80600052600a8252604060002061ff00198154169055807fac6a98145b54adc0bf4a88140a58aa33ca5ddf35ac39fc3998947220aa1b230d8360405160008152a280600052600a82526001604060002001546040519260808452600a6080850152694445414354495641544560b01b60a085015283015260006040830152426060830152600080516020614e8c83398151915260c03393a3005b346106325760203660031901126106325761404e61422e565b33600052600260205261406860ff604060002054166144ac565b60018060a01b0316806000526003602052604060002060ff19906001828254161790556004602052600260406000209182541617905560405190807fc46c392c15a2af92ff02ca27477e750573141241b368d7c76806720337439381600080a260028252600080516020614e6c83398151915260203393a3005b34610632576040366003190112610632576140fb61422e565b6024356001600160401b03811161063257614129600080516020614e8c8339815191529136906004016141a6565b91909233600052600260205261414660ff604060002054166144ac565b60018060a01b03169182600052600a60205260ff6040600020614187600182549261417285851661466d565b0154966040519460808652608086019161457f565b95602084015260081c16151560408201524260608201528033940390a3005b9181601f84011215610632578235916001600160401b038311610632576020838186019501011161063257565b60806003198201126106325760043591602435600681101561063257916001600160401b03916044358381116106325782614210916004016141a6565b939093926064359182116106325761422a916004016141a6565b9091565b600435906001600160a01b038216820361063257565b60243590811515820361063257565b600611156114f057565b919082519283825260005b848110614289575050826000602080949584010152601f8019910116010190565b602081830181015184830182015201614268565b9060406003198301126106325760043591602435906001600160401b0382116106325761422a916004016141a6565b6040906003190112610632576004359060243590565b90600182811c92168015614312575b60208310146142fc57565b634e487b7160e01b600052602260045260246000fd5b91607f16916142f1565b906000929180549161432d836142e2565b91828252600193848116908160001461438f575060011461434f575b50505050565b90919394506000526020928360002092846000945b83861061437b575050505001019038808080614349565b805485870183015294019385908201614364565b9294505050602093945060ff191683830152151560051b01019038808080614349565b61012081019081106001600160401b0382111761058057604052565b60a081019081106001600160401b0382111761058057604052565b606081019081106001600160401b0382111761058057604052565b61018081019081106001600160401b0382111761058057604052565b602081019081106001600160401b0382111761058057604052565b604081019081106001600160401b0382111761058057604052565b90601f801991011681019081106001600160401b0382111761058057604052565b600211156114f057565b9190602083019260058210156114f05752565b805482101561061c5760005260206000200190600090565b156144b357565b60405162461bcd60e51b815260206004820152600a60248201526961646d696e206f6e6c7960b01b6044820152606490fd5b9291926001600160401b038211610580576040519161450e601f8201601f191660200184614456565b829481845281830111610632578281602093846000960137010152565b90601f811161453957505050565b600091825260208220906020601f850160051c83019410614575575b601f0160051c01915b82811061456a57505050565b81815560010161455e565b9092508290614555565b908060209392818452848401376000828201840152601f01601f1916010190565b6000526008602052604060002060048101549060ff8260081c16918261461f575b82156145fb575b5050156145f45760005b60096020526040600020906145e681614477565b60ff80198354169116179055565b60016145d2565b60101c60ff16915081614611575b5038806145c8565b600891500154151538614609565b6006820154151592506145c1565b1561463457565b60405162461bcd60e51b8152602060048201526011602482015270141c9bd91d58dd081b9bdd08199bdd5b99607a1b6044820152606490fd5b1561467457565b60405162461bcd60e51b815260206004820152600e60248201526d155cd95c881b9bdd08199bdd5b9960921b6044820152606490fd5b156146b157565b60405162461bcd60e51b81526020600482015260116024820152701c1c9bd91d58dd081b9bdd08199bdd5b99607a1b6044820152606490fd5b156146f157565b60405162461bcd60e51b815260206004820152601060248201526f1a5b9858dd1a5d99481c1c9bd91d58dd60821b6044820152606490fd5b1561473057565b60405162461bcd60e51b815260206004820152600d60248201526c1b5bd91948191a5cd8589b1959609a1b6044820152606490fd5b805482101561061c576000526003602060002091020190600090565b9190820391821161120357565b8181029291811591840414171561120357565b6001600160401b0381116105805760051b60200190565b60001981146112035760010190565b156147ce57565b60405162461bcd60e51b815260206004820152600d60248201526c7072696365206d697373696e6760981b6044820152606490fd5b906145e681614253565b919082600052601060205260406000206040519061482a826143ce565b61483383614253565b8282526020820190848252604083018781526060840190428252336080860152825492600160401b841015610580576001840180825584101561061c57600052602060002093614892865161488781614253565b600586028701614803565b518051906001600160401b0382116105805781906148ca826148bc600160058a028b0101546142e2565b600160058a028b010161452b565b602090601f8311600114614a6057600092614a55575b50508160011b916000199060031b1c191617600160058502860101555b518051600584028501600201916001600160401b038211610580576149268261044185546142e2565b602090601f83116001146149d357928260049693600080516020614e4c8339815191529b9a999896936005966000926149c8575b50508160011b916000199060031b1c19161790555b5160038383028501015502010190608060018060a01b03910151166001600160601b0360a01b8254161790556149c36104de60405193836149b08695614253565b845260606020850152606084019061425d565b0390a3565b01519050388061495a565b90601f198316918460005260206000209260005b818110614a3d575093600080516020614e4c8339815191529b9a99989693600596936001938360049b9810614a24575b505050811b01905561496f565b015160001960f88460031b161c19169055388080614a17565b929360206001819287860151815501950193016149e7565b0151905038806148e0565b92506001600587028801016000526020600020906000935b601f1984168510614ac1576001945083601f19811610614aa8575b505050811b01600160058502860101556148fd565b015160001960f88460031b161c19169055388080614a93565b81810151835560209485019460019093019290910190614a78565b15614ae357565b60405162461bcd60e51b815260206004820152600f60248201526e1bdc99195c881b9bdd08199bdd5b99608a1b6044820152606490fd5b15614b2157565b60405162461bcd60e51b815260206004820152601360248201527264656c69766572792f61646d696e206f6e6c7960681b6044820152606490fd5b15614b6357565b60405162461bcd60e51b815260206004820152600b60248201526a77726f6e6720737461746560a81b6044820152606490fd5b8054600160401b81101561058057614bb391600182018155614494565b819291549060031b91821b91600019901b1916179055565b93919095949260003381526020906003825260409060ff82822054168015614dfa575b614bf790614b1a565b878152600d8352818120614c0d81541515614adc565b3382526002845260ff838320541615614d97575b614c2e8b60068301614803565b87614c7b575b505092614c799798949287600080516020614e2c833981519152614c6b94614c739751614c608a614253565b898152a236916144e5565b9336916144e5565b9261480d565b565b600801906001600160401b038811614d8357614c9b8861104f84546142e2565b80601f8911600114614d0257614c6b94614c739794614c799c9d9997948b8d95600080516020614e2c8339815191529591614cf7575b5060001960038e901b1c191660018d901b1790555b9497509450508194969a9950614c34565b905089013538614cd1565b90601f198916838352858320925b818110614d6c575094614c739794614c799c9d9997948c94600080516020614e2c833981519152948d614c6b9a10614d52575b505060018c811b019055614ce6565b8a013560001960038f901b60f8161c191690553880614d43565b91928660018192868d013581550194019201614d10565b634e487b7160e01b81526041600452602490fd5b614da08b614253565b60028b148015614de7575b614c2157825162461bcd60e51b815260048101859052601160248201527061646d696e206f6e6c792073746174757360781b6044820152606490fd5b50614df18b614253565b60038b14614dab565b50600283528181205460ff16614bee56fe32c2116247d915247da6567f4b03632268e8a226a744c8e414e8946a943f19fa15fe7663e318fda785235fa9e39aa6923ffd39fe53631991197fb842f34f6ba965bd8b7d5aac2eeb48eae97aa2dc858082e5d2395d5eaa4ef01ec2f8516e9b8d2459ac88ac07c4020108de12f1f8675bbf7e6928b4cfc156bde4727aacf789739f482e50590d7700510a395c7b00f520a46ba3ff2a287b3563db769aa532e56f4965291a3a69c7356244cd44f41f46882feaa0c886f03a28260c766c9cfcff1fa2646970667358221220a917649011d9d00707343f19f0a2100a2bed50542507b497e9cd09bdd407bb1064736f6c63430008130033",
  "immutableReferences": {},
  "source": "// SPDX-License-Identifier: MIT\r\npragma solidity ^0.8.19;\r\n\r\n\r\ncontract RepublicSurpriseContract {\r\n    // ---------- Roles ----------\r\n    address public owner;\r\n    address public admin; // keep legacy \"admin\" variable for compatibility\r\n    mapping(address => bool) public admins;\r\n    mapping(address => bool) public deliveryMen;\r\n    mapping(address => Role) public roles;\r\n\r\n    enum Role {\r\n        None,\r\n        Buyer,\r\n        Delivery,\r\n        Admin,\r\n        Seller\r\n    }\r\n\r\n    modifier onlyOwner() {\r\n        require(msg.sender == owner, \"owner only\");\r\n        _;\r\n    }\r\n\r\n    modifier onlyAdmin() {\r\n        require(admins[msg.sender], \"admin only\");\r\n        _;\r\n    }\r\n\r\n    modifier onlyDelivery() {\r\n        require(deliveryMen[msg.sender], \"delivery only\");\r\n        _;\r\n    }\r\n\r\n    modifier onlyDeliveryOrAdmin() {\r\n        require(deliveryMen[msg.sender] || admins[msg.sender], \"delivery/admin only\");\r\n        _;\r\n    }\r\n\r\n    // ---------- Company ----------\r\n    string public companyName;\r\n\r\n    constructor() {\r\n        companyName = \"Republic Surprise Shop\";\r\n        owner = msg.sender;\r\n        admin = msg.sender;\r\n\r\n        admins[msg.sender] = true;\r\n        roles[msg.sender] = Role.Seller;\r\n        emit AdminAdded(msg.sender);\r\n    }\r\n\r\n    // --- Role management ---\r\n    event AdminAdded(address indexed account);\r\n    event DeliveryAdded(address indexed account);\r\n    event RoleAssigned(address indexed account, Role role, address indexed actor);\r\n\r\n    function addAdmin(address account) external onlyOwner {\r\n        admins[account] = true;\r\n        roles[account] = Role.Admin;\r\n        emit AdminAdded(account);\r\n        emit RoleAssigned(account, Role.Admin, msg.sender);\r\n    }\r\n\r\n    function addDeliveryMan(address account) external onlyAdmin {\r\n        deliveryMen[account] = true;\r\n        roles[account] = Role.Delivery;\r\n        emit DeliveryAdded(account);\r\n        emit RoleAssigned(account, Role.Delivery, msg.sender);\r\n    }\r\n\r\n    function isAdmin(address account) external view returns (bool) {\r\n        return admins[account];\r\n    }\r\n\r\n    function isDelivery(address account) external view returns (bool) {\r\n        return deliveryMen[account];\r\n    }\r\n\r\n    function assignRole(address account, Role role) external onlyAdmin {\r\n        require(account != address(0), \"bad account\");\r\n\r\n        if (role == Role.Admin) {\r\n            admins[account] = true;\r\n            deliveryMen[account] = false;\r\n        } else if (role == Role.Delivery) {\r\n            deliveryMen[account] = true;\r\n            admins[account] = false;\r\n        } else if (role == Role.Buyer) {\r\n            admins[account] = false;\r\n            deliveryMen[account] = false;\r\n        }\r\n\r\n        roles[account] = role;\r\n        emit RoleAssigned(account, role, msg.sender);\r\n    }\r\n\r\n    // ---------- Inventory Status (legacy) ----------\r\n    enum RepublicSurpriseStatus {\r\n        InStock,\r\n        OutOfStock\r\n    }\r\n\r\n    // ---------- Product ----------\r\n    enum ProductStatus {\r\n        Active,\r\n        Inactive\r\n    }\r\n\r\n    struct Product {\r\n        uint256 id;\r\n        string name;\r\n        string description;\r\n\r\n        // legacy single price (kept for older cart total logic)\r\n        uint256 priceWei;\r\n\r\n        ProductStatus status;\r\n\r\n        // blind box sale config\r\n        bool enableIndividual;\r\n        bool enableSet;\r\n\r\n        uint256 individualPriceWei;\r\n        uint256 individualStock;\r\n\r\n        uint256 setPriceWei;\r\n        uint256 setStock;\r\n        uint256 setBoxes;\r\n    }\r\n\r\n    uint256 public productCount;\r\n    uint256 public RepublicSurpriseCount;\r\n\r\n    mapping(uint256 => Product) public products;\r\n    mapping(uint256 => RepublicSurpriseStatus) public productInventoryStatus;\r\n\r\n    // ---------- Product Events ----------\r\n    event ProductAdded(uint256 indexed id, string name, uint256 priceWei, bool enableIndividual, bool enableSet);\r\n    event ProductStatusChanged(uint256 indexed id, ProductStatus status);\r\n\r\n    function _validateBlindBoxConfig(\r\n        bool enableIndividual,\r\n        bool enableSet,\r\n        uint256 individualPriceWei,\r\n        uint256 individualStock,\r\n        uint256 setPriceWei,\r\n        uint256 setStock,\r\n        uint256 setBoxes\r\n    ) internal pure {\r\n        require(enableIndividual || enableSet, \"Select at least one purchase type\");\r\n\r\n        if (enableIndividual) {\r\n            require(individualPriceWei > 0, \"Individual price required\");\r\n            // allow stock to be 0 if you want \"preorder\" style; if not, uncomment:\r\n            // require(individualStock > 0, \"Individual stock required\");\r\n        } else {\r\n            require(individualPriceWei == 0, \"Individual price must be 0\");\r\n            require(individualStock == 0, \"Individual stock must be 0\");\r\n        }\r\n\r\n        if (enableSet) {\r\n            require(setPriceWei > 0, \"Set price required\");\r\n            // allow stock to be 0 if you want; if not, uncomment:\r\n            // require(setStock > 0, \"Set stock required\");\r\n            require(setBoxes > 0, \"Set boxes required\");\r\n        } else {\r\n            require(setPriceWei == 0, \"Set price must be 0\");\r\n            require(setStock == 0, \"Set stock must be 0\");\r\n            require(setBoxes == 0, \"Set boxes must be 0\");\r\n        }\r\n    }\r\n\r\n    function _updateInventoryStatus(uint256 id) internal {\r\n        Product storage p = products[id];\r\n        bool hasStock =\r\n            (p.enableIndividual && p.individualStock > 0) ||\r\n            (p.enableSet && p.setStock > 0);\r\n\r\n        productInventoryStatus[id] = hasStock\r\n            ? RepublicSurpriseStatus.InStock\r\n            : RepublicSurpriseStatus.OutOfStock;\r\n    }\r\n\r\n    // Add product \r\n    function addProduct(\r\n        uint256 id,\r\n        string calldata name,\r\n        string calldata description,\r\n        uint256 priceWei,\r\n        bool enableIndividual,\r\n        bool enableSet,\r\n        uint256 individualPriceWei,\r\n        uint256 individualStock,\r\n        uint256 setPriceWei,\r\n        uint256 setStock,\r\n        uint256 setBoxes\r\n    ) public onlyAdmin {\r\n        require(products[id].id == 0, \"Product exists\");\r\n        require(bytes(name).length > 0, \"name required\");\r\n\r\n        _validateBlindBoxConfig(\r\n            enableIndividual,\r\n            enableSet,\r\n            individualPriceWei,\r\n            individualStock,\r\n            setPriceWei,\r\n            setStock,\r\n            setBoxes\r\n        );\r\n\r\n        products[id] = Product({\r\n            id: id,\r\n            name: name,\r\n            description: description,\r\n            priceWei: priceWei,\r\n            status: ProductStatus.Active,\r\n            enableIndividual: enableIndividual,\r\n            enableSet: enableSet,\r\n            individualPriceWei: individualPriceWei,\r\n            individualStock: individualStock,\r\n            setPriceWei: setPriceWei,\r\n            setStock: setStock,\r\n            setBoxes: setBoxes\r\n        });\r\n\r\n        productCount += 1;\r\n        RepublicSurpriseCount = productCount;\r\n\r\n        _updateInventoryStatus(id);\r\n        emit ProductAdded(id, name, priceWei, enableIndividual, enableSet);\r\n    }\r\n\r\n    function deactivateProduct(uint256 id) public onlyAdmin {\r\n        require(products[id].id != 0, \"Product not found\");\r\n        products[id].status = ProductStatus.Inactive;\r\n\r\n        emit ProductStatusChanged(id, ProductStatus.Inactive);\r\n    }\r\n\r\n    function reactivateProduct(uint256 id) public onlyAdmin {\r\n        require(products[id].id != 0, \"Product not found\");\r\n        products[id].status = ProductStatus.Active;\r\n\r\n        emit ProductStatusChanged(id, ProductStatus.Active);\r\n    }\r\n\r\n    // ---------- Users (on-chain status only) ----------\r\n    struct UserProfile {\r\n        bool exists;\r\n        bool active;\r\n        bytes32 profileHash;\r\n    }\r\n\r\n    mapping(address => UserProfile) public users;\r\n\r\n    event UserRegistered(address indexed user, bytes32 profileHash);\r\n    event UserProfileUpdated(address indexed user, bytes32 profileHash);\r\n    event UserStatusChanged(address indexed user, bool active);\r\n    event UserAuditLogged(address indexed user, string action, address indexed actor, bytes32 profileHash, bool active, uint256 timestamp);\r\n\r\n    function registerUser(address user, bytes32 profileHash) public onlyAdmin {\r\n        require(!users[user].exists, \"User exists\");\r\n        users[user] = UserProfile(true, true, profileHash);\r\n        if (roles[user] == Role.None) {\r\n            roles[user] = Role.Buyer;\r\n            emit RoleAssigned(user, Role.Buyer, msg.sender);\r\n        }\r\n        emit UserRegistered(user, profileHash);\r\n        emit UserAuditLogged(user, \"REGISTER\", msg.sender, profileHash, true, block.timestamp);\r\n    }\r\n\r\n    function updateUserProfile(address user, bytes32 profileHash) public {\r\n        require(msg.sender == user, \"user only\");\r\n        require(users[user].exists, \"User not found\");\r\n        users[user].profileHash = profileHash;\r\n        emit UserProfileUpdated(user, profileHash);\r\n        emit UserAuditLogged(user, \"UPDATE_PROFILE\", msg.sender, profileHash, users[user].active, block.timestamp);\r\n    }\r\n\r\n    function deactivateUser(address user) public onlyAdmin {\r\n        require(users[user].exists, \"User not found\");\r\n        users[user].active = false;\r\n        emit UserStatusChanged(user, false);\r\n        emit UserAuditLogged(user, \"DEACTIVATE\", msg.sender, users[user].profileHash, false, block.timestamp);\r\n    }\r\n\r\n    function reactivateUser(address user) public onlyAdmin {\r\n        require(users[user].exists, \"User not found\");\r\n        users[user].active = true;\r\n        emit UserStatusChanged(user, true);\r\n        emit UserAuditLogged(user, \"REACTIVATE\", msg.sender, users[user].profileHash, true, block.timestamp);\r\n    }\r\n\r\n    function logUserAudit(address user, string calldata action) external onlyAdmin {\r\n        UserProfile storage profile = users[user];\r\n        require(profile.exists, \"User not found\");\r\n        emit UserAuditLogged(user, action, msg.sender, profile.profileHash, profile.active, block.timestamp);\r\n    }\r\n\r\n    // ---------- Cart ---------- (angela)\r\n    // NOTE: to support both individual/set pricing, we store isSet in cart items.\r\n    struct CartItem {\r\n        uint256 productId;\r\n        uint256 quantity;\r\n        bool isSet;\r\n    }\r\n\r\n    mapping(address => CartItem[]) private carts;\r\n\r\n    event CartItemAdded(address indexed buyer, uint256 productId, uint256 quantity, bool isSet);\r\n    event CartItemRemoved(address indexed buyer, uint256 productId);\r\n    event CartCleared(address indexed buyer);\r\n\r\n    function addToCart(uint256 productId, uint256 quantity) external {\r\n        // legacy function: defaults to individual purchase\r\n        addToCartV2(productId, quantity, false);\r\n    }\r\n\r\n    function addToCartV2(uint256 productId, uint256 quantity, bool isSet) public {\r\n        require(quantity > 0, \"quantity must be > 0\");\r\n        require(products[productId].id != 0, \"product not found\");\r\n\r\n        Product memory p = products[productId];\r\n        require(p.status == ProductStatus.Active, \"inactive product\");\r\n        require(isSet ? p.enableSet : p.enableIndividual, \"mode disabled\");\r\n\r\n        carts[msg.sender].push(CartItem(productId, quantity, isSet));\r\n        emit CartItemAdded(msg.sender, productId, quantity, isSet);\r\n    }\r\n\r\n    function removeFromCart(uint256 index) external {\r\n        CartItem[] storage cart = carts[msg.sender];\r\n        require(index < cart.length, \"bad index\");\r\n        uint256 productId = cart[index].productId;\r\n        cart[index] = cart[cart.length - 1];\r\n        cart.pop();\r\n        emit CartItemRemoved(msg.sender, productId);\r\n    }\r\n\r\n    function clearCart() external {\r\n        delete carts[msg.sender];\r\n        emit CartCleared(msg.sender);\r\n    }\r\n\r\n    function getCart(address buyer) external view returns (CartItem[] memory) {\r\n        return carts[buyer];\r\n    }\r\n\r\n    function getCartTotal(address buyer) public view returns (uint256 total) {\r\n        CartItem[] storage cart = carts[buyer];\r\n        for (uint256 i = 0; i < cart.length; i++) {\r\n            Product memory p = products[cart[i].productId];\r\n            uint256 unit = cart[i].isSet ? p.setPriceWei : p.individualPriceWei;\r\n\r\n            // fallback to legacy priceWei if needed\r\n            if (unit == 0) unit = p.priceWei;\r\n\r\n            total += unit * cart[i].quantity;\r\n        }\r\n    }\r\n\r\n    // ---------- Orders / Delivery (Merged main flow) ----------\r\n    enum OrderStatus {\r\n        Pending,\r\n        Paid,\r\n        OutForDelivery,\r\n        PendingConfirmation,\r\n        Completed,\r\n        Cancelled\r\n    }\r\n\r\n    struct Order {\r\n        uint256 id;\r\n        address buyer;\r\n        uint256 productId;\r\n        bool isSet;\r\n        uint256 qty;\r\n        uint256 paid;       // wei\r\n        OrderStatus status;\r\n        string deliveryId;\r\n        string proofImage;  // base64 hash/URI if needed\r\n    }\r\n\r\n    uint256 public orderCount;\r\n    mapping(uint256 => Order) public orders;\r\n    mapping(uint256 => address) public orderDeliveryMan;\r\n    mapping(address => uint256[]) private ordersByDeliveryMan;\r\n\r\n    struct DeliveryLog {\r\n        OrderStatus status;\r\n        string note;\r\n        string proofImage;\r\n        uint256 timestamp;\r\n        address actor;\r\n    }\r\n\r\n    mapping(uint256 => DeliveryLog[]) private deliveryLogs;\r\n\r\n    event OrderCreated(\r\n        uint256 indexed orderId,\r\n        uint256 productId,\r\n        address buyer,\r\n        uint256 qty,\r\n        bool isSet,\r\n        uint256 paid\r\n    );\r\n\r\n    event DeliveryStatus(\r\n        uint256 indexed orderId,\r\n        string deliveryId,\r\n        OrderStatus status,\r\n        string proofImage\r\n    );\r\n\r\n    event OrderStatusChanged(uint256 indexed orderId, OrderStatus status);\r\n    event DeliveryAssigned(uint256 indexed orderId, address indexed deliveryMan, address indexed actor);\r\n    event DeliveryLogAdded(uint256 indexed orderId, OrderStatus status, address indexed actor, string note, string proofImage);\r\n\r\n    function _logDelivery(\r\n        uint256 orderId,\r\n        OrderStatus status,\r\n        string memory note,\r\n        string memory proofImage\r\n    ) internal {\r\n        deliveryLogs[orderId].push(\r\n            DeliveryLog({\r\n                status: status,\r\n                note: note,\r\n                proofImage: proofImage,\r\n                timestamp: block.timestamp,\r\n                actor: msg.sender\r\n            })\r\n        );\r\n        emit DeliveryLogAdded(orderId, status, msg.sender, note, proofImage);\r\n    }\r\n\r\n    function productPrice(uint256 productId, bool isSet, uint256 qty) external view returns (uint256) {\r\n        Product memory p = products[productId];\r\n        uint256 unit = isSet ? p.setPriceWei : p.individualPriceWei;\r\n        require(unit > 0, \"price missing\");\r\n        return unit * qty;\r\n    }\r\n\r\n    function buy(uint256 productId, bool isSet, uint256 qty, string calldata deliveryId)\r\n        external\r\n        payable\r\n        returns (uint256 orderId)\r\n    {\r\n        require(qty > 0, \"qty > 0\");\r\n\r\n        Product storage p = products[productId];\r\n        require(p.id != 0, \"product not found\");\r\n        require(p.status == ProductStatus.Active, \"inactive product\");\r\n        require(isSet ? p.enableSet : p.enableIndividual, \"mode disabled\");\r\n\r\n        if (isSet) {\r\n            require(p.setStock >= qty, \"insufficient set stock\");\r\n        } else {\r\n            require(p.individualStock >= qty, \"insufficient box stock\");\r\n        }\r\n\r\n        uint256 unit = isSet ? p.setPriceWei : p.individualPriceWei;\r\n        require(unit > 0, \"price missing\");\r\n        uint256 totalPrice = unit * qty;\r\n\r\n        require(msg.value == totalPrice, \"wrong payment\");\r\n\r\n        // debit stock\r\n        if (isSet) p.setStock -= qty;\r\n        else p.individualStock -= qty;\r\n\r\n        _updateInventoryStatus(productId);\r\n\r\n        orderId = ++orderCount;\r\n        orders[orderId] = Order({\r\n            id: orderId,\r\n            buyer: msg.sender,\r\n            productId: productId,\r\n            isSet: isSet,\r\n            qty: qty,\r\n            paid: msg.value,\r\n            status: OrderStatus.Paid,\r\n            deliveryId: deliveryId,\r\n            proofImage: \"\"\r\n        });\r\n\r\n        emit OrderCreated(orderId, productId, msg.sender, qty, isSet, msg.value);\r\n        _logDelivery(orderId, OrderStatus.Paid, \"ORDER_PAID\", \"\");\r\n    }\r\n\r\n    function markOutForDelivery(uint256 orderId, string calldata deliveryId) external onlyAdmin {\r\n        Order storage o = orders[orderId];\r\n        require(o.id != 0, \"order not found\");\r\n        require(o.status == OrderStatus.Paid, \"not paid\");\r\n\r\n        o.status = OrderStatus.OutForDelivery;\r\n        o.deliveryId = deliveryId;\r\n\r\n        emit DeliveryStatus(orderId, deliveryId, o.status, \"\");\r\n        _logDelivery(orderId, o.status, \"OUT_FOR_DELIVERY\", \"\");\r\n    }\r\n\r\n    // merged signature: allow delivery man OR admin (since old code used onlyAdmin)\r\n    function submitProof(uint256 orderId, string calldata proofImage) external onlyDeliveryOrAdmin {\r\n        Order storage o = orders[orderId];\r\n        require(o.id != 0, \"order not found\");\r\n        require(o.status == OrderStatus.OutForDelivery, \"wrong state\");\r\n\r\n        o.proofImage = proofImage;\r\n        o.status = OrderStatus.PendingConfirmation;\r\n\r\n        emit DeliveryStatus(orderId, o.deliveryId, o.status, proofImage);\r\n        _logDelivery(orderId, o.status, \"PROOF_SUBMITTED\", proofImage);\r\n    }\r\n\r\n    function confirmDelivery(uint256 orderId) external onlyAdmin {\r\n        Order storage o = orders[orderId];\r\n        require(o.id != 0, \"order not found\");\r\n        require(o.status == OrderStatus.PendingConfirmation, \"wrong state\");\r\n\r\n        o.status = OrderStatus.Completed;\r\n        emit OrderStatusChanged(orderId, o.status);\r\n        _logDelivery(orderId, o.status, \"DELIVERY_CONFIRMED\", o.proofImage);\r\n    }\r\n\r\n    function assignDeliveryManToOrder(uint256 orderId, address deliveryMan) external onlyAdmin {\r\n        require(deliveryMen[deliveryMan], \"not delivery\");\r\n        Order storage o = orders[orderId];\r\n        require(o.id != 0, \"order not found\");\r\n\r\n        orderDeliveryMan[orderId] = deliveryMan;\r\n        ordersByDeliveryMan[deliveryMan].push(orderId);\r\n        emit DeliveryAssigned(orderId, deliveryMan, msg.sender);\r\n    }\r\n\r\n    function deliveryAddStatus(\r\n        uint256 orderId,\r\n        OrderStatus status,\r\n        string calldata note,\r\n        string calldata proofImage\r\n    ) external onlyDeliveryOrAdmin {\r\n        _setDeliveryStatus(orderId, status, note, proofImage);\r\n    }\r\n\r\n    function deliveryUpdateStatus(\r\n        uint256 orderId,\r\n        OrderStatus status,\r\n        string calldata note,\r\n        string calldata proofImage\r\n    ) external onlyDeliveryOrAdmin {\r\n        _setDeliveryStatus(orderId, status, note, proofImage);\r\n    }\r\n\r\n    function _setDeliveryStatus(\r\n        uint256 orderId,\r\n        OrderStatus status,\r\n        string calldata note,\r\n        string calldata proofImage\r\n    ) internal {\r\n        Order storage o = orders[orderId];\r\n        require(o.id != 0, \"order not found\");\r\n\r\n        if (!admins[msg.sender]) {\r\n            require(\r\n                status == OrderStatus.OutForDelivery ||\r\n                    status == OrderStatus.PendingConfirmation,\r\n                \"admin only status\"\r\n            );\r\n        }\r\n\r\n        o.status = status;\r\n        if (bytes(proofImage).length > 0) {\r\n            o.proofImage = proofImage;\r\n        }\r\n\r\n        emit OrderStatusChanged(orderId, status);\r\n        _logDelivery(orderId, status, note, proofImage);\r\n    }\r\n\r\n    function getDeliveryHistory(uint256 orderId) external view returns (DeliveryLog[] memory) {\r\n        return deliveryLogs[orderId];\r\n    }\r\n\r\n    function getOrderDetail(uint256 orderId) external view returns (Order memory) {\r\n        return orders[orderId];\r\n    }\r\n\r\n    function getOrdersForDelivery(address deliveryMan) external view returns (uint256[] memory) {\r\n        return ordersByDeliveryMan[deliveryMan];\r\n    }\r\n\r\n    // ---------- User Order Tracking (legacy) ---------- (angela)\r\n    enum UserOrderStatus {\r\n        Placed,\r\n        Paid,\r\n        Shipped,\r\n        Delivered,\r\n        Completed,\r\n        Cancelled\r\n    }\r\n\r\n    struct UserOrder {\r\n        uint256 id;\r\n        address buyer;\r\n        uint256 totalAmount;\r\n        UserOrderStatus status;\r\n        uint256 createdAt;\r\n    }\r\n\r\n    mapping(uint256 => UserOrder) public userOrders;\r\n    mapping(address => uint256[]) public userOrdersByUser;\r\n    uint256 public nextUserOrderId;\r\n\r\n    event UserOrderCreated(uint256 indexed orderId, address indexed buyer, uint256 totalAmount);\r\n    event UserOrderStatusUpdated(uint256 indexed orderId, UserOrderStatus status);\r\n\r\n    function createUserOrder(uint256 totalAmount) external {\r\n        uint256 id = nextUserOrderId;\r\n        nextUserOrderId += 1;\r\n\r\n        userOrders[id] = UserOrder({\r\n            id: id,\r\n            buyer: msg.sender,\r\n            totalAmount: totalAmount,\r\n            status: UserOrderStatus.Placed,\r\n            createdAt: block.timestamp\r\n        });\r\n\r\n        userOrdersByUser[msg.sender].push(id);\r\n        emit UserOrderCreated(id, msg.sender, totalAmount);\r\n    }\r\n\r\n    function updateUserOrderStatus(uint256 id, UserOrderStatus status) external onlyAdmin {\r\n        UserOrder storage o = userOrders[id];\r\n        require(o.buyer != address(0), \"order not found\");\r\n        o.status = status;\r\n        emit UserOrderStatusUpdated(id, status);\r\n    }\r\n\r\n    // ---------- Legacy Payment (kept) ----------\r\n    struct Payment {\r\n        address buyer;\r\n        uint256 amountPaid;     // wei\r\n    }\r\n\r\n    mapping(uint256 => Payment) public payments; // orderId -> payment\r\n\r\n    event Paid(uint256 orderId, address buyer, uint256 amountPaid);\r\n    function paywithMetamask(uint256 orderId, uint256 productId) public payable {\r\n        require(msg.value > 0, \"pay > 0\");\r\n        require(orders[orderId].id == 0, \"order exists\");\r\n        require(products[productId].id != 0, \"product not found\");\r\n\r\n        Product storage p = products[productId];\r\n        require(p.status == ProductStatus.Active, \"inactive product\");\r\n        require(p.enableIndividual, \"individual disabled\");\r\n        require(p.individualStock >= 1, \"insufficient stock\");\r\n\r\n        uint256 unit = p.individualPriceWei;\r\n        if (unit == 0) unit = p.priceWei;\r\n        require(unit > 0, \"price missing\");\r\n        require(msg.value == unit, \"incorrect amount\");\r\n\r\n        // debit 1 box\r\n        p.individualStock -= 1;\r\n        _updateInventoryStatus(productId);\r\n\r\n        // store legacy payment record\r\n        payments[orderId] = Payment(msg.sender, msg.value);\r\n\r\n        // create merged order\r\n        orders[orderId] = Order({\r\n            id: orderId,\r\n            buyer: msg.sender,\r\n            productId: productId,\r\n            isSet: false,\r\n            qty: 1,\r\n            paid: msg.value,\r\n            status: OrderStatus.Paid,\r\n            deliveryId: \"\",\r\n            proofImage: \"\"\r\n        });\r\n\r\n        // keep orderCount consistent (optional)\r\n        if (orderId > orderCount) orderCount = orderId;\r\n\r\n        emit Paid(orderId, msg.sender, msg.value);\r\n        emit OrderCreated(orderId, productId, msg.sender, 1, false, msg.value);\r\n    }\r\n\r\n    // ---------- Treasury ----------\r\n    function withdraw(address payable to, uint256 amount) external onlyAdmin {\r\n        require(amount <= address(this).balance, \"exceeds balance\");\r\n        to.transfer(amount);\r\n    }\r\n\r\n    // ---------- Safety ----------\r\n    receive() external payable {}\r\n}\r\n",
  "sourcePath": "C:\\Users\\24004264\\C373Projects\\FAproject\\contracts\\RepublicSurpriseContract.sol",
  "compiler": {
    "name": "solc",
    "version": "0.8.19+commit.7dd6d404.Emscripten.clang"
  },
  "schemaVersion": "3.4.16",
  "updatedAt": "2026-01-29T04:03:03.225Z",
  "devdoc": {
    "kind": "dev",
    "methods": {},
    "version": 1
  },
  "userdoc": {
    "kind": "user",
    "methods": {},
    "version": 1
  }
}